:100000000C942A000C9447000C9447000C94470071
:100010000C9447000C9447000C9447000C94D015A6
:100020000C9447000C9447000C9447000C94470034
:100030000C9447000C9447000C9447000C94470024
:100040000C94EC280C9447000C9447000C94470047
:100050000C94470011241FBECFE5D8E0DEBFCDBF12
:1000600011E0A0E6B0E0EEECFAE502C005900D92DA
:10007000A23DB107D9F717E0A2EDB1E001C01D9292
:10008000AA33B107E1F70E941F290C94652D0C9447
:100090000000EF92FF920F931F937B018C0120E0F1
:1000A00030E040E05FE40E94F50388238CF0C80153
:1000B000B70120E030E040E05FE40E94C1010E940F
:1000C00055049B01AC01205030404040504806C0D0
:1000D000C801B7010E9455049B01AC01B901CA01D6
:1000E0001F910F91FF90EF900895A0E0B0E0EBE733
:1000F000F0E00C94E02CDC012B01FA019C91923091
:1001000008F439C1EB018881823008F433C194309E
:1001100069F4843009F02FC111969C91119789815F
:10012000981709F428C1ADE9B0E025C1843009F47D
:1001300021C18230A9F4923009F01DC19A01AD01AC
:1001400088E0EA010990AE01E90109929E0181501F
:10015000C1F7E201898111969C918923818308C1AD
:10016000923009F407C112962D903C901397EB0141
:100170008A819B811496AD90BD90CD90DC901797AD
:10018000EC80FD800E811F819101281B390BB90184
:1001900037FF04C066277727621B730B6032710537
:1001A0000CF061C0121613066CF537014801062EDB
:1001B00004C096948794779467940A94D2F721E0C8
:1001C00030E040E050E004C0220F331F441F551FB1
:1001D0006A95D2F721503040404050402E213F21B7
:1001E00040235123211531054105510521F021E01E
:1001F00030E040E050E079018A01E628F72808293C
:1002000019293CC0232BD1F1260E371E350146019A
:10021000062E04C096948794779467940A94D2F734
:1002200021E030E040E050E004C0220F331F441FC3
:10023000551F6A95D2F721503040404050402A2146
:100240003B214C215D21211531054105510521F04E
:1002500021E030E040E050E059016A01A628B728CB
:10026000C828D9280BC0821593052CF01C01AA249C
:10027000BB24650103C0EE24FF24870111969C91E5
:10028000D20111968C91981709F445C0992339F041
:10029000A80197012A193B094C095D0906C0A6016E
:1002A00095012E193F09400B510B57FD08C01182D3
:1002B0003382228224833583468357831DC081E0A5
:1002C00081833382228288279927DC01821B930B4A
:1002D000A40BB50B84839583A683B7830DC0220F2F
:1002E000331F441F551F24833583468357838281E0
:1002F000938101979383828324813581468157813D
:10030000DA01C9010197A109B1098F5F9F4FAF4F72
:10031000BF4328F30BC0918333822282EA0CFB1C7B
:100320000C1D1D1DE482F5820683178383E0808304
:10033000248135814681578157FF1AC0C901AA27F8
:1003400097FDA095BA2F81709070A070B0705695EF
:10035000479537952795822B932BA42BB52B848318
:100360009583A683B7838281938101969383828349
:10037000DF0101C0D201CD01CDB7DEB7E2E10C94BF
:10038000FC2CA0E2B0E0E7ECF1E00C94EC2C6983EB
:100390007A838B839C832D833E834F835887E9E048
:1003A000EE2EF12CEC0EFD1ECE010196B7010E943F
:1003B00046068E010F5E1F4FCE010596B8010E94C2
:1003C00046068A8991E089278A8BC701B801AE0168
:1003D000475E5F4F0E9475000E947105A096E6E09F
:1003E0000C94082DA0E2B0E0E8EFF1E00C94EC2CC6
:1003F00069837A838B839C832D833E834F835887C5
:10040000F9E0EF2EF12CEC0EFD1ECE010196B701A6
:100410000E9446068E010F5E1F4FCE010596B80161
:100420000E944606C701B801AE01475E5F4F0E94B9
:1004300075000E947105A096E6E00C94082DA0E2DC
:10044000B0E0E5E2F2E00C94E02C69837A838B83E0
:100450009C832D833E834F835887CE010196BE0136
:10046000675F7F4F0E944606CE010596BE016F5E14
:100470007F4F0E9446069985923088F089898230A4
:10048000C8F0943019F4823051F404C0843029F457
:10049000923081F48DE990E0C6C0923049F420E0BA
:1004A0009A858A89981321E02A87CE010996BBC0D4
:1004B000823049F420E09A858A89981321E02A8BBA
:1004C000CE014196B0C02D843E844F8458886D88FB
:1004D0007E888F88988CEE24FF248701AA24BB2471
:1004E000650140E050E060E070E0E0E0F0E0C10174
:1004F00081709070892BE9F0E60CF71C081D191D1E
:100500009A01AB012A0D3B1D4C1D5D1D80E090E062
:10051000A0E0B0E0E614F7040805190520F481E036
:1005200090E0A0E0B0E0BA01A901480F591F6A1F8E
:100530007B1FAA0CBB1CCC1CDD1C97FE08C081E0F5
:1005400090E0A0E0B0E0A82AB92ACA2ADB2A3196B6
:10055000E032F10549F0660C771C881C991C569412
:10056000479437942794C3CFFA85EA892B893C892D
:100570008B859C85280F391F2E5F3F4F17C0CA01FE
:1005800081709070892B61F016950795F794E79428
:1005900080E090E0A0E0B0E8E82AF92A0A2B1B2BC3
:1005A00076956795579547952F5F3F4F77FDE7CF36
:1005B0000CC0440F551F661F771F17FD4160EE0CDE
:1005C000FF1C001F111F21503040403090E05907A0
:1005D00090E0690790E4790760F32B8F3C8FDB0193
:1005E000CA018F779070A070B07080349105A1051A
:1005F000B10561F447FD0AC0E114F10401051105DC
:1006000029F0405C5F4F6F4F7F4F40781A8EFE1786
:1006100011F081E08A8F4D8F5E8F6F8F78A383E01A
:10062000898FCE0149960E947105A096E2E10C9453
:10063000FC2CA8E1B0E0EFE1F3E00C94E82C698336
:100640007A838B839C832D833E834F835887B9E0C5
:10065000EB2EF12CEC0EFD1ECE010196B7010E948F
:1006600046068E010F5E1F4FCE010596B8010E940F
:1006700046062985223008F47EC03989323010F4CC
:10068000B8017CC08A859A8989278A87243011F02D
:10069000223031F4231709F06EC06DE970E06EC0AE
:1006A000343039F41D861E861F86188A1C861B86E8
:1006B00004C0323021F484E08987B7015FC02B8504
:1006C0003C858B899C89281B390B3C872B87ED84C3
:1006D000FE840F851889AD88BE88CF88D88CEA142F
:1006E000FB040C051D0540F4EE0CFF1C001F111F40
:1006F000215030403C872B8720E030E040E050E044
:1007000080E090E0A0E0B0E460E070E0EA14FB0478
:100710000C051D0540F0282B392B4A2B5B2BEA18C2
:10072000FB080C091D09B695A79597958795EE0CC2
:10073000FF1C001F111F6F5F7F4F6F31710531F775
:10074000DA01C9018F779070A070B0708034910584
:10075000A105B10561F427FD0AC0E114F10401050A
:10076000110529F0205C3F4F4F4F5F4F20782D87B8
:100770003E874F87588BBE01675F7F4FCB010E943A
:1007800071056896EAE00C94042DA8E1B0E0EBEC6A
:10079000F3E00C94EC2C69837A838B839C832D8308
:1007A0003E834F83588789E0E82EF12CEC0EFD1E26
:1007B000CE010196B7010E9446068E010F5E1F4FC3
:1007C000CE010596B8010E9446068985823040F028
:1007D0008989823028F0C701B8010E94BE0601C095
:1007E0008FEF6896E6E00C94082DA8E1B0E0EBEFFF
:1007F000F3E00C94EC2C69837A838B839C832D83A8
:100800003E834F83588789E0E82EF12CEC0EFD1EC5
:10081000CE010196B7010E9446068E010F5E1F4F62
:10082000CE010596B8010E9446068985823040F0C7
:100830008989823028F0C701B8010E94BE0601C034
:100840008FEF6896E6E00C94082DA8E1B0E0EBE2AB
:10085000F4E00C94EC2C69837A838B839C832D8346
:100860003E834F83588789E0E82EF12CEC0EFD1E65
:10087000CE010196B7010E9446068E010F5E1F4F02
:10088000CE010596B8010E9446068985823040F067
:100890008989823028F0C701B8010E94BE0601C0D4
:1008A00081E06896E6E00C94082DACE0B0E0EBE562
:1008B000F4E00C94F02C69837A838B839C83CE01C3
:1008C0000196BE016B5F7F4F0E9446068D8182308C
:1008D00061F1823050F1843021F48E81882351F10E
:1008E0002EC02F81388537FD20C06E812F31310514
:1008F0001CF06623F9F023C08EE190E0821B930B7D
:1009000029853A854B855C8504C056954795379572
:1009100027958A95D2F76623B1F05095409530958A
:1009200021953F4F4F4F5F4F0EC020E030E040E039
:1009300050E009C02FEF3FEF4FEF5FE704C020E02A
:1009400030E040E050E8B901CA012C96E2E00C9496
:100950000C2DA8E0B0E0EFEAF4E00C94E82C7B0169
:100960008C01611571058105910519F482E0898377
:1009700060C083E089838EE1C82ED12CDC82CB82DB
:10098000ED82FE820F831887C801B7010E942205FD
:10099000FC013197F7FF3BC0222733272E1B3F0B6B
:1009A00057016801022E04C0D694C794B794A79447
:1009B0000A94D2F740E050E060E070E081E090E01F
:1009C000A0E0B0E004C0880F991FAA1FBB1F2A95A2
:1009D000D2F70197A109B1098E219F21A023B1234C
:1009E0000097A105B10521F041E050E060E070E022
:1009F0004A295B296C297D294D835E836F83788723
:100A00008EE190E08E1B9F0B9C838B8312C03097EE
:100A100081F00E2E04C0EE0CFF1C001F111F0A9463
:100A2000D2F7ED82FE820F831887CE1ADF0ADC82AE
:100A3000CB821A82CE0101960E9471052896EAE0C7
:100A40000C94042DEF92FF920F931F937B018C0166
:100A500080E0E81680E0F80681E0080780E01807EB
:100A600088F48FEFE816F1040105110531F028F044
:100A700088E090E0A0E0B0E017C080E090E0A0E067
:100A8000B0E012C080E0E81680E0F80680E00807D9
:100A900081E0180728F088E190E0A0E0B0E004C011
:100AA00080E190E0A0E0B0E020E230E040E050E003
:100AB000281B390B4A0B5B0B04C016950795F7945E
:100AC000E7948A95D2F7F701EB55FF4F8081281BF9
:100AD000310941095109C9011F910F91FF90EF9010
:100AE0000895DF92EF92FF920F931F93FC01E48031
:100AF000F58006811781D1808081823048F480E0C2
:100B000090E0A0E1B0E0E82AF92A0A2B1B2BA5C04F
:100B1000843009F49FC0823021F4EE24FF24870141
:100B200005C0E114F1040105110519F4E0E0F0E05D
:100B300096C0628173819FEF623879070CF05BC0C9
:100B400022E83FEF261B370B2A3131052CF020E03D
:100B500030E040E050E02AC0B801A701022E04C0F6
:100B600076956795579547950A94D2F781E090E07E
:100B7000A0E0B0E004C0880F991FAA1FBB1F2A95F0
:100B8000D2F70197A109B1098E219F21A023B1239A
:100B90000097A105B10521F081E090E0A0E0B0E070
:100BA0009A01AB01282B392B4A2B5B2BDA01C901A7
:100BB0008F779070A070B07080349105A105B10559
:100BC00039F427FF09C0205C3F4F4F4F5F4F04C0EF
:100BD000215C3F4F4F4F5F4FE0E0F0E02030A0E05E
:100BE0003A07A0E04A07A0E45A0710F0E1E0F0E07D
:100BF00079018A0127C06038710564F5FB01E1586D
:100C0000FF4FD801C7018F779070A070B07080340B
:100C10009105A105B10539F4E7FE0DC080E490E02F
:100C2000A0E0B0E004C08FE390E0A0E0B0E0E80E08
:100C3000F91E0A1F1B1F17FF05C016950795F7948D
:100C4000E794319687E016950795F794E7948A958F
:100C5000D1F705C0EE24FF248701EFEFF0E06E2FFF
:100C6000679566276795902F9F77D794DD24D79453
:100C70008E2F8695492F462B582F5D29B701CA0123
:100C80001F910F91FF90EF90DF900895FC01DB0121
:100C9000408151812281622F6F7770E0221F2227CD
:100CA000221F9381892F880F822B282F30E0991FD4
:100CB0009927991F11969C93119721153105A9F534
:100CC000411551056105710511F482E037C082E8D4
:100CD0009FEF13969C938E9312979A01AB0167E056
:100CE000220F331F441F551F6A95D1F783E08C9361
:100CF0000DC0220F331F441F551F12968D919C91DA
:100D00001397019713969C938E931297203080E04F
:100D1000380780E0480780E4580758F314962D936D
:100D20003D934D935C93179708952F3F310579F4C8
:100D3000411551056105710519F484E08C930895FE
:100D400064FF03C081E08C9312C01C9210C02F5727
:100D5000304013963C932E93129783E08C9387E058
:100D6000440F551F661F771F8A95D1F7706414963C
:100D70004D935D936D937C93179708951F93DC01BA
:100D8000FB019C91923008F447C08081823008F4C6
:100D900043C0943051F411961C91843099F58181AF
:100DA000682F70E0611B71093FC0843021F09230E0
:100DB00031F48230B9F18181882389F12DC01196F7
:100DC0001C9111978230F1F081811817D9F4129695
:100DD0002D913C911397828193818217930794F010
:100DE00028173907BCF014968D919D910D90BC91F8
:100DF000A02D2481358146815781281739074A075C
:100E00005B0718F4112341F00AC082179307A40767
:100E1000B50740F4112319F061E070E005C06FEFF1
:100E20007FEF02C060E070E0CB011F910895DF9377
:100E3000CF93CDB7DEB7AB970FB6F894DEBF0FBE3A
:100E4000CDBF1BA680E090E0ACE0B2E48FA398A7F2
:100E5000A9A7BAA76FA178A589A59AA520E030E037
:100E60004AEF54E40E941F02DC01CB018BA39CA338
:100E7000ADA3BEA36BA17CA18DA19EA120E030E01B
:100E800040E85FE30E94250488232CF481E090E091
:100E90009AA389A33FC06BA17CA18DA19EA120E054
:100EA0003FEF4FE757E40E94C50318164CF56FA1BA
:100EB00078A589A59AA520E030E040E251E40E949F
:100EC0001F02DC01CB01BC01CD010E944900DC0105
:100ED000CB019AA389A30FC088EC90E098A38F8FD1
:100EE0008F8D98A10197F1F798A38F8F89A19AA16F
:100EF00001979AA389A389A19AA1009769F714C0C1
:100F00006BA17CA18DA19EA10E944900DC01CB01B7
:100F10009AA389A389A19AA19E8F8D8F8D8D9E8D75
:100F20000197F1F79E8F8D8F81E066E041E00E948E
:100F30005F2480E061E041E00E945F2480E062E0A5
:100F400041E00E945F2480E066E041E00E945F246F
:100F500080E065E041E00E945F2480E064E041E0E1
:100F60000E945F2480E063E041E00E945F2481E012
:100F700066E040E00E944B2580E066E040E00E9491
:100F80004B2580E065E040E00E944B2580E064E076
:100F900041E00E944B2580E063E040E00E944B2549
:100FA00080E062E041E00E944B2580E090E0A0E21A
:100FB000B1E4898F9A8FAB8FBC8F698D7A8D8B8DC1
:100FC0009C8D20E030E04AEF54E40E941F02DC01D7
:100FD000CB018D8B9E8BAF8BB88F6D897E898F896E
:100FE000988D20E030E040E85FE30E9425048823EC
:100FF0002CF481E090E09C8B8B8B3FC06D897E89C7
:101000008F89988D20E03FEF4FE757E40E94C5039A
:1010100018164CF5698D7A8D8B8D9C8D20E030E013
:1010200040E251E40E941F02DC01CB01BC01CD0172
:101030000E944900DC01CB019C8B8B8B0FC088EC9C
:1010400090E09A8B898B89899A890197F1F79A8B1D
:10105000898B8B899C8901979C8B8B8B8B899C8935
:10106000009769F714C06D897E898F89988D0E94D9
:101070004900DC01CB019C8B8B8B8B899C89988BE5
:101080008F878F8598890197F1F7988B8F8780E0FC
:1010900062E040E00E944B2580E090E0A0E2B1E4F5
:1010A0008B879C87AD87BE876B857C858D859E856C
:1010B00020E030E04AEF54E40E941F02DC01CB0143
:1010C0008F839887A987BA876F81788589859A8564
:1010D00020E030E040E85FE30E94250488232CF400
:1010E00081E090E09E838D833FC06F817885898504
:1010F0009A8520E03FEF4FE757E40E94C50318169A
:101100004CF56B857C858D859E8520E030E040E246
:1011100051E40E941F02DC01CB01BC01CD010E9401
:101120004900DC01CB019E838D830FC088EC90E0E9
:101130009C838B838B819C810197F1F79C838B83AC
:101140008D819E8101979E838D838D819E810097E5
:1011500069F714C06F81788589859A850E94490056
:10116000DC01CB019E838D838D819E819A8389834F
:1011700089819A810197F1F79A83898388E20E9495
:101180003A0A81E066E040E00E944B258FE00E9431
:101190003A0A81E066E040E00E944B2581E00E942F
:1011A0003A0A81E066E040E00E944B2586E00E941A
:1011B0003A0A8BA5AB960FB6F894DEBF0FBECDBF33
:1011C000CF91DF910895DF93CF9300D0CDB7DEB7F5
:1011D0008A83198281E066E041E00E944B258A8182
:1011E0000E943A0A89810F900F90CF91DF91089564
:1011F000DF93CF9300D0CDB7DEB78A83198281E029
:1012000066E040E00E944B258A810E943A0A89816B
:101210000F900F90CF91DF910895DF93CF9300D07F
:101220000F92CDB7DEB79B838A8319828A819B8117
:101230000097B9F010C081E066E041E00E944B25C4
:10124000EA81FB8120818A819B8101969B838A832D
:10125000822F0E943A0AEA81FB818081882359F714
:1012600002C083E0898389810F900F900F90CF9106
:10127000DF9108950F931F93DF93CF93CDB7DEB720
:1012800062970FB6F894DEBF0FBECDBF6F87788B25
:10129000898B9A8B1A828CE0FE013396DF01982F9E
:1012A0001D929A95E9F719828F859889A989BA893B
:1012B0000097A105B10541F481E066E041E00E949C
:1012C0004B2580E30E943A0A8F859889A989BA89BB
:1012D000BB230CF046C081E066E041E00E944B2554
:1012E0008DE20E943A0A8F859889A989BA89B095BA
:1012F000A095909581959F4FAF4FBF4F8F87988B4B
:10130000A98BBA8B2EC089818F5F89838981082F31
:1013100010E08F859889A989BA892AE030E040E0F9
:1013200050E0BC01CD010E94A32CDC01CB01282F91
:10133000205DCE010396FC01E00FF11F20838F8515
:101340009889A989BA892AE030E040E050E0BC01E0
:10135000CD010E94A32CDA01C9018F87988BA98B3C
:10136000BA8B8F859889A989BA890097A105B1059B
:1013700051F614C081E066E041E00E944B2589816E
:10138000282F30E0CE010396FC01E20FF31F90817D
:10139000898181508983892F0E943A0A8981882313
:1013A00049F78A8162960FB6F894DEBF0FBECDBFB3
:1013B000CF91DF911F910F910895DF93CF9300D0CC
:1013C00000D000D0CDB7DEB78B836C831A828B81BF
:1013D000882309F443C08B81853008F03FC08C819D
:1013E0008823E1F18C818131C8F581E066E040E03D
:1013F0000E944B258B81282F30E03E832D838D81E9
:101400009E8182309105D1F02D813E8123303105BE
:1014100034F48D819E818130910561F01AC02D8157
:101420003E812330310571F08D819E81843091059C
:1014300069F00FC08C81815089830BC08C81815CE5
:10144000898307C08C81815F898303C08C81815B24
:101450008983898180580E943A0A02C082E08A8387
:101460008A8126960FB6F894DEBF0FBECDBFCF910E
:10147000DF910895DF93CF93CDB7DEB7EA970FB62C
:10148000F894DEBF0FBECDBF8AAF19AE80E061E039
:1014900040E00E944B2580E062E040E00E944B2546
:1014A0008AAD982F991F9927991F80E066E0492FF0
:1014B0000E944B258AAD8295869586958370982FDC
:1014C000917080E065E0492F0E944B258AAD82959E
:1014D00086958770982F917080E064E0492F0E9474
:1014E0004B258AAD82958F70982F917080E063E0D4
:1014F000492F0E944B2580E062E041E00E944B258D
:1015000080E090E0A0E2B1E48DAB9EABAFABB8AFB2
:101510006DA97EA98FA998AD20E030E04AEF54E490
:101520000E941F02DC01CB0189AB9AABABABBCAB19
:1015300069A97AA98BA99CA920E030E040E85FE383
:101540000E94250488232CF481E090E098AB8FA7BB
:101550003FC069A97AA98BA99CA920E03FEF4FE77A
:1015600057E40E94C50318164CF56DA97EA98FA9F2
:1015700098AD20E030E040E251E40E941F02DC011F
:10158000CB01BC01CD010E944900DC01CB0198AB2D
:101590008FA70FC088EC90E09EA78DA78DA59EA574
:1015A0000197F1F79EA78DA78FA598A9019798ABF2
:1015B0008FA78FA598A9009769F714C069A97AA980
:1015C0008BA99CA90E944900DC01CB0198AB8FA795
:1015D0008FA598A99CA78BA78BA59CA50197F1F730
:1015E0009CA78BA780E062E040E00E944B2580E052
:1015F00090E0A0E2B1E48FA398A7A9A7BAA76FA132
:1016000078A589A59AA520E030E04AEF54E40E942D
:101610001F02DC01CB018BA39CA3ADA3BEA36BA1D6
:101620007CA18DA19EA120E030E040E85FE30E9414
:10163000250488232CF481E090E09AA389A33FC07D
:101640006BA17CA18DA19EA120E03FEF4FE757E465
:101650000E94C50318164CF56FA178A589A59AA517
:1016600020E030E040E251E40E941F02DC01CB01A7
:10167000BC01CD010E944900DC01CB019AA389A3E2
:101680000FC088EC90E098A38F8F8F8D98A1019761
:10169000F1F798A38F8F89A19AA101979AA389A3A3
:1016A00089A19AA1009769F714C06BA17CA18DA1B3
:1016B0009EA10E944900DC01CB019AA389A389A1C4
:1016C0009AA19E8F8D8F8D8D9E8D0197F1F79E8FA4
:1016D0008D8F8AAD869586958695982F917080E03E
:1016E00066E0492F0E944B258AAD86958695982FF6
:1016F000917080E065E0492F0E944B258AAD869568
:10170000982F917080E064E0492F0E944B258AADAC
:10171000982F917080E063E0492F0E944B2580E074
:1017200062E041E00E944B2580E090E0A0E2B1E45D
:10173000898F9A8FAB8FBC8F698D7A8D8B8D9C8DA5
:1017400020E030E04AEF54E40E941F02DC01CB01AC
:101750008D8B9E8BAF8BB88F6D897E898F89988D8D
:1017600020E030E040E85FE30E94250488232CF469
:1017700081E090E09C8B8B8B3FC06D897E898F8947
:10178000988D20E03FEF4FE757E40E94C5031816FD
:101790004CF5698D7A8D8B8D9C8D20E030E040E298
:1017A00051E40E941F02DC01CB01BC01CD010E946B
:1017B0004900DC01CB019C8B8B8B0FC088EC90E047
:1017C0009A8B898B89899A890197F1F79A8B898BF2
:1017D0008B899C8901979C8B8B8B8B899C8900972B
:1017E00069F714C06D897E898F89988D0E944900A0
:1017F000DC01CB019C8B8B8B8B899C89988B8F8791
:101800008F8598890197F1F7988B8F8780E062E048
:1018100040E00E944B2580E090E0A0E2B1E48B879D
:101820009C87AD87BE876B857C858D859E8520E0F6
:1018300030E04AEF54E40E941F02DC01CB018F83A9
:101840009887A987BA876F81788589859A8520E0EE
:1018500030E040E85FE30E94250488232CF481E017
:1018600090E09E838D833FC06F81788589859A85BE
:1018700020E03FEF4FE757E40E94C50318164CF5F0
:101880006B857C858D859E8520E030E040E251E4CB
:101890000E941F02DC01CB01BC01CD010E94490066
:1018A000DC01CB019E838D830FC088EC90E09C838C
:1018B0008B838B819C810197F1F79C838B838D8136
:1018C0009E8101979E838D838D819E81009769F70C
:1018D00014C06F81788589859A850E944900DC0152
:1018E000CB019E838D838D819E819A83898389819B
:1018F0009A810197F1F79A83898389ADEA960FB6A9
:10190000F894DEBF0FBECDBFCF91DF910895DF9376
:10191000CF930F92CDB7DEB7198283E064E041E048
:101920000E945F2483E065E041E00E945F2483E041
:1019300066E041E00E945F2483E067E041E00E94AE
:101940005F2483E064E041E00E944B2583E065E092
:1019500041E00E944B2583E066E041E00E944B2578
:1019600083E067E041E00E944B2581E060E040E0D9
:101970000E945F2481E061E040E00E945F2481E0FA
:1019800062E040E00E945F2481E063E040E00E946A
:101990005F2481E060E041E00E944B2581E061E04E
:1019A00041E00E944B2581E062E041E00E944B252E
:1019B00081E063E041E00E944B2589810F90CF9147
:1019C000DF910895DF93CF93CDB7DEB7EA970FB6D7
:1019D000F894DEBF0FBECDBF9DAB8CAB1A8A198ABF
:1019E000188A81E08B8B81E08C8B81E08D8B81E08C
:1019F0008E8B1F8A81E0888F82E0898F83E08A8FB7
:101A000083E08B8F83E08C8F83E08D8F83E08E8FDC
:101A100084E08F8F85E088A386E089A387E08AA38E
:101A200080E68BA31F863EC18889282F30E0CE0137
:101A30004B96FC01E20FF31F40818889282F30E08C
:101A4000CE014F96FC01E20FF31F9081842F692F86
:101A500040E00E944B25198A07C18989282F30E070
:101A6000CE014396FC01E20FF31F40818989282FA4
:101A700030E0CE014796FC01E20FF31F90819E01FA
:101A80002D5D3F4F842F692FA9010E94C5268BA190
:101A9000882309F0E6C080E090E0A0E8BFE38B87F0
:101AA0009C87AD87BE876B857C858D859E8520E074
:101AB00030E04AEF54E40E941F02DC01CB018F8327
:101AC0009887A987BA876F81788589859A8520E06C
:101AD00030E040E85FE30E94250488232CF481E095
:101AE00090E09E838D833FC06F81788589859A853C
:101AF00020E03FEF4FE757E40E94C50318164CF56E
:101B00006B857C858D859E8520E030E040E251E448
:101B10000E941F02DC01CB01BC01CD010E944900E3
:101B2000DC01CB019E838D830FC088EC90E09C8309
:101B30008B838B819C810197F1F79C838B838D81B3
:101B40009E8101979E838D838D819E81009769F789
:101B500014C06F81788589859A850E944900DC01CF
:101B6000CB019E838D838D819E819A838983898118
:101B70009A810197F1F79A8389838989282F30E028
:101B8000CE014396FC01E20FF31F40818989282F83
:101B900030E0CE014796FC01E20FF31F90819E01D9
:101BA0002D5D3F4F842F692FA9010E94C5268BA16F
:101BB000882309F056C01AC08989282F30E0CE0149
:101BC0004396FC01E20FF31F40818989282F30E002
:101BD000CE014796FC01E20FF31F90819E012D5D1F
:101BE0003F4F842F692FA9010E94C5268BA188230E
:101BF00019F3CE0184969FAB8EABE1ECF1E0F9AF27
:101C0000E8AFF0E1FAAFE8ADF9AD008088AD99AD8D
:101C1000019699AF88AFEEA9FFA900828EA99FA96E
:101C200001969FAB8EAB9AAD91509AAFEAADEE2381
:101C300051F78989282F30E08889482F50E0220FFA
:101C4000331F220F331FCE010196820F931F840F83
:101C5000951FFC01B3968081ECA9FDA9808381E0EA
:101C60008F8789898F5F898B8989843008F4F5CEC5
:101C70008889282F30E0CE014B96FC01E20FF31F3C
:101C800040818889282F30E0CE014F96FC01E20F79
:101C9000F31F9081842F692F41E00E944B25888992
:101CA0008F5F888B8889843008F4BECE8F85882327
:101CB00021F4ECA9FDA98FEF80838A89EA960FB6FB
:101CC000F894DEBF0FBECDBFCF91DF910895DF93B3
:101CD000CF93CDB7DEB7F89481E0CF91DF9108952F
:101CE000DF93CF93CDB7DEB7789481E0CF91DF91CA
:101CF0000895DF93CF93CDB7DEB7F89481E0CF910D
:101D0000DF910895DF93CF93CDB7DEB727970FB656
:101D1000F894DEBF0FBECDBF9D838C836E834F834F
:101D20008AE190E00E945A119A83898389819A817D
:101D3000009709F46FC08091D2019091D301009770
:101D400041F489819A819093D3018093D2010E94BA
:101D5000E9108E81823010F081E08E83E981FA8172
:101D6000118E108EE981FA818E81868BE981FA814C
:101D70008F81878BE981FA818C819D81918380831A
:101D800089819A8102960E94F01189819A810C962C
:101D90000E94F011E981FA8189819A819187808777
:101DA000E981FA8189819A81938B828B8E81282F98
:101DB00030E085E090E0821B930BE981FA81958702
:101DC0008487E981FA8196898091D401891728F462
:101DD000E981FA8186898093D401E981FA81868933
:101DE000282F30E0C901880F991F880F991F880F8D
:101DF000991F820F931FAC0145525E4F89819A81D2
:101E00009C012E5F3F4FCA01B9010E94001281E080
:101E10008B8302C08FEF8B838B8127960FB6F8944C
:101E2000DEBF0FBECDBFCF91DF910895DF93CF937B
:101E300000D000D000D0CDB7DEB79C838B837E83EB
:101E40006D832091D5013091D6018B819C81820FC9
:101E5000931F9A8389838091D2019091D301029636
:101E60000E94B812E091D201F091D30189819A8148
:101E7000938382832091D5013091D60189819A8103
:101E80008217930770F480910102909102022091D1
:101E9000D2013091D3012E5F3F4FB9010E944C1205
:101EA0000DC08091FF01909100022091D2013091EC
:101EB000D3012E5F3F4FB9010E944C128D819E814C
:101EC000009761F08091D2019091D3019C01245F31
:101ED0003F4F8D819E81B9010E944C1226960FB60C
:101EE000F894DEBF0FBECDBFCF91DF910895DF9391
:101EF000CF9300D0CDB7DEB73AC0F894E091080296
:101F0000F0910902868197819A83898389819A81D8
:101F10000C960E94B812789489819A8102960E9448
:101F2000B812E981FA8196898091D401891728F441
:101F3000E981FA8186898093D401E981FA818689D1
:101F4000282F30E0C901880F991F880F991F880F2B
:101F5000991F820F931FAC0145525E4F89819A8170
:101F60009C012E5F3F4FCA01B9010E94001280916F
:101F70000302882309F0C1CF0F900F90CF91DF911A
:101F80000895DF93CF9300D000D0CDB7DEB70E9485
:101F90001D1F2091D7013091D801821B930B909384
:101FA000DA018093D90185C08091D5019091D60145
:101FB00001969093D6018093D5018091D90190919B
:101FC000DA0101979093DA018093D9018091D501CC
:101FD0009091D601009709F064C08091FF01909123
:101FE00000029A838983809101029091020290936A
:101FF00000028093FF0189819A819093020280936D
:1020000001024FC0E091FF01F09100020580F681CE
:10201000E02D868197819C838B83EB81FC812281DB
:1020200033818091D5019091D6018217930708F4EE
:1020300040C0F8948B819C8102960E94B812EB817B
:10204000FC8184899589009729F08B819C810C966D
:102050000E94B8127894EB81FC8196898091D4011A
:10206000891728F4EB81FC8186898093D401EB8168
:10207000FC818689282F30E0C901880F991F880FBD
:10208000991F880F991F820F931FAC0145525E4F15
:102090008B819C819C012E5F3F4FCA01B9010E9438
:1020A0000012E091FF01F09100028081882309F085
:1020B000A9CF8091D9019091DA01009709F074CFEE
:1020C0008091D5019091D6019093D8018093D7014A
:1020D0000F900F900F900F90CF91DF910895DF93A5
:1020E000CF9300D0CDB7DEB70E94770F0E94C10F0B
:1020F0000AC08091D401882309F466C08091D4017C
:1021000081508093D4018091D401282F30E0C901FF
:10211000880F991F880F991F880F991F820F931F8F
:10212000FC01E552FE4F8081882319F38091D40190
:10213000282F30E0C901880F991F880F991F880F39
:10214000991F820F931F85529E4F9A838983E9813D
:10215000FA810180F281E02D82819381E981FA8107
:1021600092838183E981FA812181328189819A81F7
:1021700003962817390759F4E981FA810180F28121
:10218000E02D82819381E981FA8192838183E981C3
:10219000FA810180F281E02D868197819093D301AD
:1021A0008093D201E091D201F091D301408151811D
:1021B0008091D2019091D301E091D201F091D301AD
:1021C0002789622FFA0109950F900F90CF91DF9127
:1021D0000895DF93CF930F92CDB7DEB7198213C066
:1021E0008981282F30E0C901880F991F880F991F16
:1021F000880F991F820F931F85529E4F0E94C61110
:1022000089818F5F89838981823050F38DEE91E0DF
:102210000E94C61186EF91E00E94C61183E092E011
:102220000E94C6118DEE91E0909300028093FF0111
:1022300086EF91E090930202809301020F90CF917C
:10224000DF910895DF93CF9300D000D00F92CDB7E8
:10225000DEB79D838C83EC81FD810580F681E02DC6
:10226000868197819B838A838A819B810C960E94B9
:10227000B8128A819B819C01245F3F4F83E092E0EA
:10228000B9010E940012EA81FB819689E091D20196
:10229000F091D3018689981718F081E0898301C0F5
:1022A000198289810F900F900F900F900F90CF910E
:1022B000DF910895DF93CF9300D000D0CDB7DEB784
:1022C0009C838B831A8219820E94871E80910C0244
:1022D00090910D022B813C81820F931F24E0803B63
:1022E000920718F520910C0230910D028B819C8190
:1022F000280F391F80910C0290910D0282179307CD
:10230000A0F480910C0290910D02825F9D4F9A8300
:10231000898320910C0230910D028B819C81820F68
:10232000931F90930D0280930C020E94931E89814B
:102330009A810F900F900F900F90CF91DF91089599
:10234000DF93CF9300D0CDB7DEB79A8389830F9008
:102350000F90CF91DF910895DF93CF93CDB7DEB784
:1023600010920D0210920C02CF91DF910895DF932D
:10237000CF93CDB7DEB720910C0230910D0280EBE8
:1023800094E0821B930BCF91DF910895DF93CF935D
:1023900000D0CDB7DEB79A83898389819A8103966D
:1023A000E981FA8192838183E981FA818FEF9FEF3E
:1023B0009483838389819A810396E981FA81968344
:1023C000858389819A810396E981FA819087878341
:1023D000E981FA8110820F900F90CF91DF910895DB
:1023E000DF93CF9300D0CDB7DEB79A838983E9819D
:1023F000FA81118610860F900F90CF91DF9108958A
:10240000DF93CF9300D000D000D0CDB7DEB79C8350
:102410008B837E836D83EB81FC81818192819A83A2
:102420008983E981FA8182819381ED81FE819383A1
:102430008283EB81FC8181819281ED81FE81958394
:102440008483E981FA810280F381E02D8D819E8170
:10245000958384838D819E81E981FA819383828330
:102460008D819E81EB81FC8192838183ED81FE8150
:102470008B819C8191878087EB81FC8180818F5F3C
:10248000EB81FC81808326960FB6F894DEBF0FBEE9
:10249000CDBFCF91DF910895DF93CF93CDB7DEB756
:1024A00028970FB6F894DEBF0FBECDBF9E838D83F5
:1024B00078876F83EF81F885808191819A83898302
:1024C00089819A812FEF8F3F920739F4ED81FE8148
:1024D000878190859C838B8318C08D819E81039614
:1024E0009C838B8306C0EB81FC81828193819C83DA
:1024F0008B83EB81FC810280F381E02D208131818F
:1025000089819A818217930770F7EB81FC81828120
:102510009381EF81F88593838283EF81F885028030
:10252000F381E02D8F81988595838483EF81F885F1
:102530008B819C81958384838F819885EB81FC813D
:1025400093838283EF81F8858D819E819187808737
:10255000ED81FE8180818F5FED81FE8180832896F1
:102560000FB6F894DEBF0FBECDBFCF91DF910895B7
:10257000DF93CF9300D000D0CDB7DEB79C838B83A1
:10258000EB81FC81A281B381EB81FC818481958107
:1025900015969C938E931497EB81FC81A481B58151
:1025A000EB81FC818281938113969C938E93129789
:1025B000EB81FC81808591859A838983E981FA8109
:1025C000218132818B819C812817390741F4EB816D
:1025D000FC8184819581E981FA8192838183EB81F9
:1025E000FC8111861086E981FA8180818150E98120
:1025F000FA8180830F900F900F900F90CF91DF9111
:102600000895DF93CF93CDB7DEB728970FB6F89430
:10261000DEBF0FBECDBF9C838B837E836D835887C7
:102620004F83EB81FC8181E180838B819C810197C9
:102630009C838B83EB81FC8182E280838B819C81F4
:1026400001979C838B83EB81FC8183E380838B8167
:102650009C8101979C838B838D819E819A83898342
:102660008981EB81FC8180838B819C8101979C8394
:102670008B8389819A81892F99279A83898389817C
:10268000EB81FC8180838B819C8101979C838B8370
:10269000EB81FC8110828B819C8101979C838B83D1
:1026A000EB81FC8180E880838B819C8101979C83F6
:1026B0008B83EB81FC8110828B819C8101979C83B1
:1026C0008B83EB81FC8182E080838B819C810197ED
:1026D0009C838B83EB81FC8183E080838B819C8155
:1026E00001979C838B83EB81FC8184E080838B81C9
:1026F0009C8101979C838B83EB81FC8185E08083A7
:102700008B819C8101979C838B83EB81FC8186E08C
:1027100080838B819C8101979C838B83EB81FC81DF
:1027200087E080838B819C8101979C838B83EB81E5
:10273000FC8188E080838B819C8101979C838B83C3
:10274000EB81FC8189E080838B819C8101979C8354
:102750008B83EB81FC8180E180838B819C8101975D
:102760009C838B83EB81FC8181E180838B819C81C5
:1027700001979C838B83EB81FC8182E180838B8139
:102780009C8101979C838B83EB81FC8183E1808317
:102790008B819C8101979C838B83EB81FC8184E1FD
:1027A00080838B819C8101979C838B83EB81FC814F
:1027B00085E180838B819C8101979C838B83EB8156
:1027C000FC8186E180838B819C8101979C838B8334
:1027D000EB81FC8187E180838B819C8101979C83C5
:1027E0008B83EB81FC8188E180838B819C810197C5
:1027F0009C838B83EB81FC8189E180838B819C812D
:1028000001979C838B83EB81FC8180E280838B81A9
:102810009C8101979C838B83EB81FC8181E2808387
:102820008B819C8101979C838B83EB81FC8182E26D
:1028300080838B819C8101979C838B83EB81FC81BE
:1028400083E280838B819C8101979C838B838F8122
:1028500098859A8389838981EB81FC8180838B8130
:102860009C8101979C838B8389819A81892F9927E9
:102870009A8389838981EB81FC8180838B819C8110
:1028800001979C838B83EB81FC8186E280838B8123
:102890009C8101979C838B83EB81FC8187E2808301
:1028A0008B819C8101979C838B83EB81FC8188E2E7
:1028B00080838B819C8101979C838B83EB81FC813E
:1028C00089E280838B819C8101979C838B83EB8140
:1028D000FC8180E380838B819C8101979C838B8327
:1028E000EB81FC8181E380838B819C8101979C83B8
:1028F0008B838B819C8128960FB6F894DEBF0FBE28
:10290000CDBFCF91DF910895DF93CF93CDB7DEB7E1
:102910000E947415A091BE06B091BF06CD91CDBFA7
:10292000DD91DEBFFF91EF91DF91CF91BF91AF912C
:102930009F918F917F916F915F914F913F912F91D7
:102940001F910F91FF90EF90DF90CF90BF90AF90CD
:102950009F908F907F906F905F904F903F902F90BF
:102960001F900F900FBE0F90089581E0CF91DF91DF
:102970000895DF93CF93CDB7DEB7CF91DF91089560
:102980000F920FB6F8940F921F9211242F923F923C
:102990004F925F926F927F928F929F92AF92BF926F
:1029A000CF92DF92EF92FF920F931F932F933F935B
:1029B0004F935F936F937F938F939F93AF93BF9347
:1029C000CF93DF93EF93FF93A091BE06B091BF0624
:1029D0000DB60D920EB60D920E942720A091BE0654
:1029E000B091BF06CD91CDBFDD91DEBFFF91EF91DC
:1029F000DF91CF91BF91AF919F918F917F916F9117
:102A00005F914F913F912F911F910F91FF90EF9008
:102A1000DF90CF90BF90AF909F908F907F906F90FE
:102A20005F904F903F902F901F900F900FBE0F9090
:102A300008950F920FB6F8940F921F9211242F92BF
:102A40003F924F925F926F927F928F929F92AF923E
:102A5000BF92CF92DF92EF92FF920F931F932F932B
:102A60003F934F935F936F937F938F939F93AF9316
:102A7000BF93CF93DF93EF93FF93A091BE06B091E6
:102A8000BF060DB60D920EB60D920E94521F0E9407
:102A90002720A091BE06B091BF06CD91CDBFDD919C
:102AA000DEBFFF91EF91DF91CF91BF91AF919F91E9
:102AB0008F917F916F915F914F913F912F911F91D6
:102AC0000F91FF90EF90DF90CF90BF90AF909F90CD
:102AD0008F907F906F905F904F903F902F901F90BE
:102AE0000F900FBE0F900895DF93CF9300D000D0CA
:102AF00000D0CDB7DEB780E49FE1A0E0B0E08B83EB
:102B00009C83AD83BE838B819C81AD81BE816894A3
:102B100015F8B695A795979587951694D1F78B8359
:102B20009C83AD83BE838B819C81AD81BE810197E7
:102B3000A109B1098B839C83AD83BE838B8189837B
:102B40008B819C81AD81BE81892F9A2FAB2FBB27B2
:102B50008B839C83AD83BE838B818A83EBE4F0E01F
:102B60008A818083EAE4F0E0898180838BE0898335
:102B7000EEE4F0E089818083E9E5F0E080818983FB
:102B8000898180618983E9E5F0E0898180832696E7
:102B90000FB6F894DEBF0FBECDBFCF91DF91089581
:102BA0000E9419151895DF93CF93CDB7DEB72897FC
:102BB0000FB6F894DEBF0FBECDBF8F8368871A8231
:102BC00019828F81882309F48CC08FE190E00E94E4
:102BD0005A119E838D838D819E81009709F481C057
:102BE0008F81282F30E08885882F90E0AC01249FCA
:102BF000C001259F900D349F900D112401969C8358
:102C00008B838B819C810E945A11ED81FE8191837F
:102C10008083ED81FE8180819181009709F45DC000
:102C2000ED81FE81408151818F81282F30E08885A0
:102C3000882F90E0BC01269FC001279F900D369FF2
:102C4000900D1124840F951FED81FE819383828363
:102C5000ED81FE81128EED81FE8180819181ED8179
:102C6000FE8195838483ED81FE81408151818F8136
:102C7000882F90E09C01215030408885882F90E07B
:102C8000BC01269FC001279F900D369F900D1124F7
:102C9000840F951FED81FE8197838683ED81FE81F0
:102CA0008F81838FED81FE818885848FED81FE8108
:102CB0008FEF858FED81FE818FEF868F8D819E81D5
:102CC00008960E94C6118D819E8141960E94C61170
:102CD0008D819E819A83898304C08D819E810E940B
:102CE000A01189819A8128960FB6F894DEBF0FBE95
:102CF000CDBFCF91DF910895DF93CF9300D0CDB7B3
:102D0000DEB78FE190E00E945A119A83898389810E
:102D10009A810097A9F1E981FA8113821282E981EF
:102D2000FA8111821082E981FA8115821482E98187
:102D3000FA8117821682E981FA81128EE981FA817D
:102D400081E0838FE981FA81148EE981FA818FEF26
:102D5000858FE981FA818FEF868F89819A81089624
:102D60000E94C61189819A8141960E94C61189816B
:102D70009A8160E070E040E050E020E00E94E616BA
:102D800089819A810F900F90CF91DF910895DF9301
:102D9000CF9300D000D0CDB7DEB78B836C838B810F
:102DA00060E00E94D3159A83898389819A81009774
:102DB00021F0E981FA818C81828F89819A810F903B
:102DC0000F900F900F90CF91DF910895DF93CF93E5
:102DD000CDB7DEB72C970FB6F894DEBF0FBECDBFD0
:102DE0009E838D8378876F835A8749872B871982C3
:102DF0000FB6F8940F92ED81FE81928DED81FE81E8
:102E0000838D9817D8F48D819E812F813885B901E3
:102E10004B850E943E19ED81FE818189882349F00E
:102E20008D819E8141960E94D620813011F40E94AE
:102E3000C0140F900FBE81E08C875CC089859A8595
:102E4000009721F40F900FBE1C8654C089818823FF
:102E500031F4CE0102960E943E2181E089830F90D9
:102E60000FBE0E94871E0FB6F8940F92ED81FE816F
:102E7000858D8F3F19F4ED81FE81158EED81FE81E8
:102E8000868D8F3F19F4ED81FE81168E0F900FBE57
:102E9000CE0102969E01275F3F4FB9010E94572144
:102EA000882309F58D819E810E94B31A8823A1F0A1
:102EB0008D819E81089629853A85B9010E948D20D1
:102EC0008D819E810E942C1A0E94931E882309F0F6
:102ED0008FCF0E94C0148CCF8D819E810E942C1AAE
:102EE0000E94931E85CF8D819E810E942C1A0E9484
:102EF000931E1C868C852C960FB6F894DEBF0FBEF1
:102F0000CDBFCF91DF910895DF93CF93CDB7DEB7DB
:102F100029970FB6F894DEBF0FBECDBF9C838B837D
:102F20007E836D8358874F8329871982EB81FC81CB
:102F3000928DEB81FC81838D981740F58B819C816C
:102F40002D813E81B90149850E943E19EB81FC81AA
:102F5000868D8F3F89F4EB81FC818189882399F0EC
:102F60008B819C8141960E94D620882361F0EF815D
:102F7000F88581E0808307C0EB81FC81868D8F5FBF
:102F8000EB81FC81868F81E08A8301C01A828A816D
:102F900029960FB6F894DEBF0FBECDBFCF91DF915B
:102FA0000895DF93CF93CDB7DEB72E970FB6F89481
:102FB000DEBF0FBECDBF98878F837A8769875C8716
:102FC0004B872D871B820FB6F8940F92EF81F885FF
:102FD000828D882309F44BC0EF81F8858681978123
:102FE0009A8389838F81988529853A85B9010E94C2
:102FF000E4198D85882311F5EF81F885828D815044
:10300000EF81F885828FEF81F8858081918100972B
:1030100031F40E945B23EF81F88593838283EF81F3
:10302000F88580858823F1F08F81988508960E9425
:10303000D6208130B9F40E94C01414C0EF81F88505
:1030400089819A8197838683EF81F8858189882396
:1030500049F08F81988541960E94D620882311F0EF
:103060000E94C0140F900FBE81E08E876DC08B85CB
:103070009C85009721F40F900FBE1E8665C08B8142
:10308000882331F4CE0104960E943E2181E08B8397
:103090000F900FBE0E94871E0FB6F8940F92EF811B
:1030A000F885858D8F3F19F4EF81F885158EEF81B6
:1030B000F885868D8F3F19F4EF81F885168E0F9075
:1030C0000FBECE0104969E01255F3F4FB9010E94BD
:1030D0005721882391F58F8198850E94801A882333
:1030E00029F1EF81F88580819181009759F40FB61D
:1030F000F8940F92EF81F885828193810E946D236D
:103100000F900FBE8F81988541962B853C85B90124
:103110000E948D208F8198850E942C1A0E94931EF8
:10312000882309F050CF0E94C0144DCF8F8198851D
:103130000E942C1A0E94931E46CF8F8198850E9470
:103140002C1A0E94931E1E868E852E960FB6F8941A
:10315000DEBF0FBECDBFCF91DF910895DF93CF9338
:10316000CDB7DEB728970FB6F894DEBF0FBECDBF40
:103170009C838B837E836D8358874F831982EB8179
:10318000FC81828D882371F18B819C812D813E8110
:10319000B9010E94E419EB81FC81828D8150EB81A1
:1031A000FC81828FEB81FC81858D8F3F89F4EB81DF
:1031B000FC818085882399F08B819C8108960E94F0
:1031C000D620882361F0EF81F88581E0808307C0F5
:1031D000EB81FC81858D8F5FEB81FC81858F81E0A8
:1031E0008A8301C01A828A8128960FB6F894DEBFBE
:1031F0000FBECDBFCF91DF910895DF93CF9300D065
:103200000F92CDB7DEB79B838A830FB6F8940F92E7
:10321000EA81FB81828D89830F900FBE89810F9097
:103220000F900F90CF91DF910895DF93CF9300D04F
:103230000F92CDB7DEB79B838A83EA81FB81828DB3
:10324000898389810F900F900F90CF91DF9108951E
:10325000DF93CF9300D0CDB7DEB79A838983E9811E
:10326000FA81808191810E94A01189819A810E94B6
:10327000A0110F900F90CF91DF910895DF93CF931E
:1032800000D000D00F92CDB7DEB79A8389837C83BC
:103290006B834D83E981FA81848D882391F4E981E0
:1032A000FA8180819181009709F07FC0E981FA81DC
:1032B000828193810E94ED23E981FA811382128237
:1032C00074C08D81882399F5E981FA8164817581C3
:1032D000E981FA81848D482F50E02B813C81CB011C
:1032E000B9010E94352DE981FA8124813581E98176
:1032F000FA81848D882F90E0820F931FE981FA81F3
:1033000095838483E981FA8124813581E981FA8179
:10331000828193812817390708F447C0E981FA812F
:1033200080819181E981FA81958384833EC0E9811E
:10333000FA8166817781E981FA81848D482F50E096
:103340002B813C81CB01B9010E94352DE981FA81A5
:1033500026813781E981FA81848D882F90E09095CC
:1033600081959F4F820F931FE981FA81978386830E
:10337000E981FA8126813781E981FA818081918111
:103380002817390790F4E981FA8122813381E98194
:10339000FA81848D882F90E0909581959F4F820FC0
:1033A000931FE981FA8197838683E981FA81828D6F
:1033B0008F5FE981FA81828F0F900F900F900F90AD
:1033C0000F90CF91DF910895DF93CF9300D000D07D
:1033D000CDB7DEB79A8389837C836B83E981FA81D9
:1033E00080819181009789F1E981FA812681378175
:1033F000E981FA81848D882F90E0820F931FE98103
:10340000FA8197838683E981FA8126813781E98170
:10341000FA81828193812817390740F0E981FA8186
:1034200080819181E981FA8197838683E981FA819C
:1034300046815781E981FA81848D282F30E08B8184
:103440009C81BA01A9010E94352D0F900F900F9019
:103450000F90CF91DF910895DF93CF9300D0CDB738
:10346000DEB79A8389830FB6F8940F9215C0E9816D
:10347000FA8181898823A9F089819A8141960E94E5
:10348000D620882311F00E94BE21E981FA81868D21
:103490008150E981FA81868FE981FA81868D18163B
:1034A00034F3E981FA818FEF868F0F900FBE0FB64C
:1034B000F8940F9215C0E981FA8180858823A9F0DC
:1034C00089819A8108960E94D620882311F00E9453
:1034D000BE21E981FA81858D8150E981FA81858F4C
:1034E000E981FA81858D181634F3E981FA818FEF2D
:1034F000858F0F900FBE0F900F90CF91DF910895A1
:10350000DF93CF9300D00F92CDB7DEB79B838A8332
:103510000FB6F8940F92EA81FB81828D198288237D
:1035200011F481E089830F900FBE89810F900F9075
:103530000F90CF91DF910895DF93CF9300D00F923A
:10354000CDB7DEB79B838A83EA81FB81828D1982A6
:10355000882311F481E0898389810F900F900F9067
:10356000CF91DF910895DF93CF9300D00F92CDB725
:10357000DEB79B838A830FB6F8940F92EA81FB81B2
:10358000928DEA81FB81838D1982981711F481E075
:1035900089830F900FBE89810F900F900F90CF916C
:1035A000DF910895DF93CF9300D00F92CDB7DEB7B0
:1035B0009B838A83EA81FB81928DEA81FB81838DE3
:1035C0001982981711F481E0898389810F900F90F7
:1035D0000F90CF91DF910895AF92BF92CF92DF927B
:1035E000EF92FF920F931F93DF93CF93CDB7DEB788
:1035F00064970FB6F894DEBF0FBECDBF9F838E8356
:10360000798768875B874A873D872C870E87F88A8A
:10361000EF86DA8AC98ABC8AAB8A8A859B85298922
:103620003A89B9010E94F5229C838B838B819C810E
:10363000009709F499C0EB81FC812789308D8A8538
:103640009B850197820F931F9A8389838B819C812D
:1036500028853985EB89FC89AA85BB85B9014E850A
:103660009F018D010E94D22189819A812E813F8103
:103670004C855D85B9010E940113EB81FC8191832A
:1036800080838F859889009731F0EF85F8898B8149
:103690009C81918380830FB6F8940F928091C1062C
:1036A0008F5F8093C1068091BE069091BF06009700
:1036B00069F48B819C819093BF068093BE068091B4
:1036C000C1068130A9F40E942D2212C08091C60645
:1036D000882371F4E091BE06F091BF0696898E852D
:1036E000891730F08B819C819093BF068093BE0632
:1036F000EB81FC8196898091C406891728F4EB81BF
:10370000FC8186898093C4068091CB068F5F80936D
:10371000CB06EB81FC8196898091C506891728F438
:10372000EB81FC8186898093C506EB81FC818689CB
:10373000282F30E0C901880F991F880F991F880F23
:10374000991F820F931FAC014453594F8B819C8169
:103750009C012E5F3F4FCA01B9010E94001281E017
:103760008D830F900FBE02C08FEF8D838D818130CE
:1037700071F48091C606882351F0E091BE06F09165
:10378000BF0696898E85981710F40E94C0148D810B
:1037900064960FB6F894DEBF0FBECDBFCF91DF9118
:1037A0001F910F91FF90EF90DF90CF90BF90AF905F
:1037B0000895DF93CF9300D000D000D0CDB7DEB70F
:1037C0009C838B830FB6F8940F922091BE063091A4
:1037D000BF068B819C818217930711F41C821B8288
:1037E0008B819C81009739F48091BE069091BF0631
:1037F0009E838D8304C08B819C819E838D838D816C
:103800009E819A83898389819A8102960E94B81247
:10381000E981FA8184899589009729F089819A81C3
:103820000C960E94B81289819A819C012E5F3F4FAD
:1038300088E197E0B9010E9400128091C0068F5F75
:103840008093C0068091CB068F5F8093CB060F904C
:103850000FBE8091C606882331F08B819C81009732
:1038600011F40E94C01426960FB6F894DEBF0FBE66
:10387000CDBFCF91DF910895DF93CF93CDB7DEB762
:1038800028970FB6F894DEBF0FBECDBF9E838D8301
:1038900078876F8319820E94871EED81FE812081C7
:1038A00031818F819885820F931F9C838B83ED815B
:1038B000FE81208131818091C2069091C3068217DA
:1038C0009307A8F4ED81FE81208131818B819C8159
:1038D0008217930700F52091C2063091C3068B81B1
:1038E0009C8128173907B8F481E0898314C0ED81E1
:1038F000FE81208131818B819C818217930748F062
:103900002091C2063091C3068B819C81281739070C
:1039100010F481E08983ED81FE818B819C8191830C
:1039200080838981882359F08091BE069091BF06DB
:1039300002960E94B8128B819C810E94AC220E9448
:10394000931E8A838A81882311F40E94C0142896CA
:103950000FB6F894DEBF0FBECDBFCF91DF910895B3
:10396000DF93CF9300D000D00F92CDB7DEB79D8309
:103970008C8319828C819D810097D1F00E94871ED3
:103980002091C2063091C3068C819D81820F931FC6
:103990009B838A838091BE069091BF0602960E9407
:1039A000B8128A819B810E94AC220E94931E898357
:1039B0008981882311F40E94C0140F900F900F90FA
:1039C0000F900F90CF91DF910895DF93CF9300D0A8
:1039D00000D000D0CDB7DEB79C838B830FB6F894B0
:1039E0000F922091BE063091BF068B819C81821779
:1039F000930711F41C821B828B819C81009739F400
:103A00008091BE069091BF069E838D8304C08B81FA
:103A10009C819E838D838D819E819A8389838981F8
:103A20009A8102960E94B812E981FA818489958967
:103A3000009729F089819A810C960E94B812898199
:103A40009A819C012E5F3F4F81E297E0B9010E946D
:103A500000120F900FBE8B819C810097A1F4809182
:103A6000C606882319F00E94C0140DC0909121074A
:103A70008091C106981729F41092BF061092BE06D5
:103A800002C00E94272026960FB6F894DEBF0FBE14
:103A9000CDBFCF91DF910895DF93CF9300D000D0B9
:103AA0000F92CDB7DEB79D838C831B828C819D8165
:103AB0009A838983E981FA818285938527E081321F
:103AC000920781F4E981FA818489958927E08F3012
:103AD000920741F0E981FA8184899589009711F470
:103AE00081E08B838B810F900F900F900F900F9040
:103AF000CF91DF910895DF93CF9300D000D0CDB761
:103B0000DEB79C838B838B819C819A838983898197
:103B10009A81009709F44CC02091BE063091BF06EF
:103B200089819A818217930709F442C00FB6F894ED
:103B30000F9289819A810E944C1D8130B9F589814B
:103B40009A8102960E94B812E981FA819689809141
:103B5000C506891728F4E981FA8186898093C5060C
:103B6000E981FA818689282F30E0C901880F991FE1
:103B7000880F991F880F991F820F931FAC01445320
:103B8000594F89819A819C012E5F3F4FCA01B9012B
:103B90000E940012E981FA819689E091BE06F091B7
:103BA000BF068689981710F00E94C0140F900FBEB0
:103BB0000F900F900F900F90CF91DF910895DF93AA
:103BC000CF9300D000D00F92CDB7DEB79D838C830A
:103BD0001B828C819D819A83898389819A810E942D
:103BE0004C1D813009F047C08091C7068823C9F574
:103BF000E981FA819689E091BE06F091BF06868937
:103C00001B82981710F081E08B8389819A8102963C
:103C10000E94B812E981FA8196898091C5068917B8
:103C200028F4E981FA8186898093C506E981FA81C1
:103C30008689282F30E0C901880F991F880F991FA6
:103C4000880F991F820F931FAC014453594F8981EC
:103C50009A819C012E5F3F4FCA01B9010E94001258
:103C60000AC089819A819C01245F3F4F8FE097E0D1
:103C7000B9010E9400128B810F900F900F900F904E
:103C80000F90CF91DF910895AF92BF92CF92DF92C4
:103C9000EF92FF920F93DF93CF930F92CDB7DEB7E2
:103CA00020E630E088EC91E2B90145E550E020E003
:103CB00030E000E0EE24FF24CC24DD24AA24BB2441
:103CC0000E94EC1A89838981813051F4F89481E053
:103CD0008093C6061092C3061092C2060E948414F6
:103CE0000F90CF91DF910F91FF90EF90DF90CF90E9
:103CF000BF90AF900895DF93CF93CDB7DEB7F89420
:103D00001092C6060E94B914CF91DF910895DF93F7
:103D1000CF93CDB7DEB78091C7068F5F8093C7067C
:103D2000CF91DF910895DF93CF9300D000D0CDB72E
:103D3000DEB71A820FB6F8940F928091C7068150B1
:103D40008093C7068091C706882309F06CC08091D4
:103D5000C106882309F467C0198241C0E0911407A5
:103D6000F0911507868197819C838B838B819C8141
:103D70000C960E94B8128B819C8102960E94B81208
:103D8000EB81FC8196898091C506891728F4EB8127
:103D9000FC8186898093C506EB81FC818689282F6A
:103DA00030E0C901880F991F880F991F880F991F4C
:103DB000820F931F8453994F2B813C812E5F3F4F7D
:103DC000B9010E940012EB81FC819689E091BE0648
:103DD000F091BF068689981710F081E08983809161
:103DE0000F07882309F0BACF8091C806882371F0A5
:103DF00007C00E94521F8091C80681508093C80658
:103E00008091C8068823A9F781E089838981813060
:103E100021F08091C906813031F481E08A831092CB
:103E2000C9060E94C0140F900FBE8A810F900F9098
:103E30000F900F90CF91DF910895DF93CF9300D033
:103E4000CDB7DEB70FB6F8940F928091C20690916D
:103E5000C3069A8389830F900FBE89819A810F9040
:103E60000F90CF91DF910895DF93CF9300D00F9201
:103E7000CDB7DEB719828091C2069091C3069B83AD
:103E80008A838A819B810F900F900F90CF91DF9151
:103E90000895DF93CF93CDB7DEB78091C106CF9160
:103EA000DF910895DF93CF9300D000D000D0CDB73D
:103EB000DEB78091C706882309F0BBC08091C20697
:103EC0009091C30601969093C3068093C206809199
:103ED000C2069091C3060097D1F580910B0790918F
:103EE0000C079C838B8380910D0790910E07909314
:103EF0000C0780930B078B819C8190930E07809316
:103F00000D078091CA068F5F8093CA06E0910B0768
:103F1000F0910C078081882339F48FEF9FEF909305
:103F2000A6018093A50113C0E0910B07F0910C0747
:103F30000580F681E02D868197819E838D83ED81BA
:103F4000FE81828193819093A6018093A5012091A7
:103F5000C2063091C3068091A5019091A601281751
:103F6000390708F46BC0E0910B07F0910C078081D2
:103F7000882339F48FEF9FEF9093A6018093A501DA
:103F80005DC0E0910B07F0910C070580F681E02DF4
:103F9000868197819E838D83ED81FE8182819381CD
:103FA0009A8389832091C2063091C30689819A81C0
:103FB0002817390738F489819A819093A601809354
:103FC000A5013CC08D819E8102960E94B812ED81B0
:103FD000FE8184899589009729F08D819E810C96B8
:103FE0000E94B812ED81FE8196898091C5068917DD
:103FF00028F4ED81FE8186898093C506ED81FE81DE
:104000008689282F30E0C901880F991F880F991FD2
:10401000880F991F820F931FAC014453594F8D8114
:104020009E819C012E5F3F4FCA01B9010E94001280
:104030009ACF8091C8068F5F8093C80626960FB6E8
:10404000F894DEBF0FBECDBFCF91DF910895DF930F
:10405000CF9300D0CDB7DEB78091C706882349F053
:1040600081E08093C90654C08091C5068150809339
:10407000C5068091C506282F30E0C901880F991F19
:10408000880F991F880F991F820F931FFC01E4531B
:10409000F94F8081882341F38091C506282F30E0B5
:1040A000C901880F991F880F991F880F991F820FC8
:1040B000931F8453994F9A838983E981FA81018000
:1040C000F281E02D82819381E981FA81928381835B
:1040D000E981FA812181328189819A8103962817A9
:1040E000390759F4E981FA810180F281E02D82815A
:1040F0009381E981FA8192838183E981FA81018048
:10410000F281E02D868197819093BF068093BE0651
:104110000F900F90CF91DF910895DF93CF9300D050
:1041200000D000D0CDB7DEB79C838B837E836D83B8
:104130004B815C818091BE069091BF069C01245FFB
:104140003F4FCA01B9010E944C128091BE06909166
:10415000BF0602960E94B8128D819E812FEF8F3F7D
:10416000920769F48091BE069091BF069C012E5F74
:104170003F4F81E297E0B9010E9400120EC02091EA
:10418000C2063091C3068D819E81820F931F9A8350
:10419000898389819A810E94AC2226960FB6F89471
:1041A000DEBF0FBECDBFCF91DF910895DF93CF93D8
:1041B00000D000D00F92CDB7DEB79D838C83EC8109
:1041C000FD810580F681E02D868197819B838A831E
:1041D0008A819B810C960E94B8128091C706882321
:1041E00061F58A819B8102960E94B812EA81FB8167
:1041F00096898091C506891728F4EA81FB81868912
:104200008093C506EA81FB818689282F30E0C901A9
:10421000880F991F880F991F880F991F820F931F6E
:10422000AC014453594F8A819B819C012E5F3F4FC3
:10423000CA01B9010E9400120AC08A819B819C01B7
:10424000245F3F4F8FE097E0B9010E940012EA819E
:10425000FB819689E091BE06F091BF06868998178A
:1042600018F081E0898301C0198289810F900F9035
:104270000F900F900F90CF91DF910895DF93CF9320
:1042800000D0CDB7DEB79A8389838091CA06E981D1
:10429000FA8180838091C2069091C306E981FA81F8
:1042A000928381830F900F90CF91DF910895DF93D8
:1042B000CF9300D000D00F92CDB7DEB79B838A8317
:1042C0007D836C830FB6F8940F92EC81FD81808121
:1042D00091812FEF8F3F920711F4198244C0EA8138
:1042E000FB8190818091CA06981771F0EA81FB8169
:1042F000218132818091C2069091C3068217930773
:1043000018F081E089832FC02091C2063091C30646
:10431000EA81FB8181819281281B390BEC81FD812F
:104320008081918128173907E0F4EC81FD8140817B
:104330005181EA81FB81218132818091C206909175
:10434000C306B901681B790BCB01840F951FEC8163
:10435000FD81918380838A819B810E943E21198205
:1043600002C081E089830F900FBE89810F900F906A
:104370000F900F900F90CF91DF910895DF93CF931F
:10438000CDB7DEB781E08093C906CF91DF91089564
:10439000DF93CF9300D0CDB7DEB79A8389830E9495
:1043A0006E22FDCF0F931F93DF93CF93CDB7DEB770
:1043B00029970FB6F894DEBF0FBECDBF9A838983CD
:1043C0007C836B834D833F832E8319870887898184
:1043D0009A8149962B813C81B90148E050E00E94C6
:1043E0004E2DE981FA8110A28D81853010F084E094
:1043F0008D83E981FA818D81868BE981FA818D81B6
:1044000081A389819A8102960E94F01189819A8103
:104410000C960E94F011E981FA8189819A81918735
:1044200080878D81282F30E085E090E0821B930B00
:10443000E981FA8195878487E981FA8189819A8166
:10444000938B828B29960FB6F894DEBF0FBECDBF3B
:10445000CF91DF911F910F910895DF93CF930F922A
:10446000CDB7DEB7198213C08981282F30E0C9018A
:10447000880F991F880F991F880F991F820F931F0C
:104480008453994F0E94C61189818F5F89838981E6
:10449000853050F389EF96E00E94C61182E097E0E4
:1044A0000E94C6118FE097E00E94C61188E197E054
:1044B0000E94C61181E297E00E94C61189EF96E042
:1044C00090930C0780930B0782E097E090930E0780
:1044D00080930D070F90CF91DF910895DF93CF93D5
:1044E00000D00F92CDB7DEB78091C006882371F15E
:1044F0000E94871E809118071B82882311F481E097
:104500008B830E94931E8B81882301F50FB6F8944C
:104510000F92E0911D07F0911E07868197819A8383
:10452000898389819A8102960E94B8128091C1067E
:1045300081508093C1068091C00681508093C0064F
:104540000F900FBE89819A810E9445230F900F9092
:104550000F90CF91DF910895DF93CF9300D0CDB727
:10456000DEB79A838983E091BE06F091BF06898108
:104570009A81938382832091C2063091C3068981F8
:104580009A818217930770F480910D0790910E071E
:104590002091BE063091BF062E5F3F4FB9010E94A9
:1045A0004C121EC040910B0750910C078091BE0623
:1045B0009091BF069C012E5F3F4FCA01B9010E9436
:1045C0004C122091A5013091A60189819A81821710
:1045D000930730F489819A819093A6018093A50175
:1045E0000F900F90CF91DF910895DF93CF93CDB7C8
:1045F000DEB728970FB6F894DEBF0FBECDBF9C8301
:104600008B837E836D8382E290E00E945A119A83AD
:10461000898389819A81009769F18D819E810097B4
:1046200039F48B819C810E945A1198878F8304C032
:104630008D819E8198878F83E981FA818F8198850A
:10464000908F878BE981FA818789908D009739F463
:1046500089819A810E94A0111A8219820BC0E98176
:10466000FA818789908D2B813C8165EA70E0A901F0
:104670000E943E2D89819A8128960FB6F894DEBF5C
:104680000FBECDBFCF91DF910895DF93CF9300D0C0
:10469000CDB7DEB79A838983E981FA818789908DC6
:1046A0000E94A01189819A810E94A0110F900F9001
:1046B000CF91DF910895DF93CF9300D0CDB7DEB7D0
:1046C0008091BE069091BF069A83898389819A81E1
:1046D0000F900F90CF91DF910895DF93CF9300D08B
:1046E00000D0CDB7DEB79C838B838B819C819A836E
:1046F0008983E981FA819689E091BE06F091BF062F
:104700008689981708F062C0E091BE06F091BF0656
:104710008689282F30E085E090E0821B930BE981A9
:10472000FA8195878487E981FA8142855385E981F9
:10473000FA818689282F30E0C901880F991F880FD8
:10474000991F880F991F820F931F8453994F481701
:104750005907A1F589819A8102960E94B812E091C9
:10476000BE06F091BF068689E981FA81868BE981D0
:10477000FA8196898091C506891728F4E981FA8122
:1047800086898093C506E981FA818689282F30E0E1
:10479000C901880F991F880F991F880F991F820FD1
:1047A000931FAC014453594F89819A819C012E5F1C
:1047B0003F4FCA01B9010E94001208C0E091BE0635
:1047C000F091BF068689E981FA81868B0F900F9060
:1047D0000F900F90CF91DF910895DF93CF9300D08A
:1047E00000D0CDB7DEB79C838B838B819C819A836D
:1047F00089838B819C81009709F447C0E981FA8104
:104800009689E981FA8181A1981709F43EC08981CE
:104810009A8102960E94B812E981FA8181A1E98108
:10482000FA81868BE981FA818689282F30E085E03C
:1048300090E0821B930BE981FA8195878487E98157
:10484000FA8196898091C506891728F4E981FA8151
:1048500086898093C506E981FA818689282F30E010
:10486000C901880F991F880F991F880F991F820F00
:10487000931FAC014453594F89819A819C012E5F4B
:104880003F4FCA01B9010E9400120F900F900F9084
:104890000F90CF91DF910895DF93CF930F92CDB713
:1048A000DEB71982EAE3F0E085E78083EBE3F0E02E
:1048B00089ED808389810F90CF91DF910895DF93F7
:1048C000CF9300D000D000D0CDB7DEB78A836B8302
:1048D0004C8319828A81843008F0D1C08B81883062
:1048E00008F0CDC08C81823008F0C9C08A81282FA1
:1048F00030E03E832D836D817E816130710509F446
:1049000041C08D819E818230910534F42D813E819C
:104910002115310571F0B0C06D817E816230710565
:1049200009F459C08D819E818330910509F47CC0C2
:10493000A3C0AAE3B0E0EAE3F0E08081482F8B81D6
:10494000282F30E081E090E002C0880F991F2A955F
:10495000E2F7809584238C93AAE3B0E0EAE3F0E0E9
:104960008081482F8C81282F30E08B81882F90E028
:10497000B90102C0660F771F8A95E2F7CB01842B3D
:104980008C937AC0A7E3B0E0E7E3F0E08081482FA2
:104990008B81282F30E081E090E002C0880F991FC2
:1049A0002A95E2F7809584238C93A7E3B0E0E7E3B0
:1049B000F0E08081482F8C81282F30E08B81882F78
:1049C00090E0B90102C0660F771F8A95E2F7CB012C
:1049D000842B8C9351C0A4E3B0E0E4E3F0E0808149
:1049E000482F8B81282F30E081E090E002C0880FB3
:1049F000991F2A95E2F7809584238C93A4E3B0E075
:104A0000E4E3F0E08081482F8C81282F30E08B8117
:104A1000882F90E0B90102C0660F771F8A95E2F7F0
:104A2000CB01842B8C9328C0A1E3B0E0E1E3F0E05C
:104A30008081482F8B81282F30E081E090E002C0F8
:104A4000880F991F2A95E2F7809584238C93A1E320
:104A5000B0E0E1E3F0E08081482F8C81282F30E046
:104A60008B81882F90E0B90102C0660F771F8A956D
:104A7000E2F7CB01842B8C9381E0898302C082E032
:104A80008983898126960FB6F894DEBF0FBECDBF0D
:104A9000CF91DF910895DF93CF9300D000D000D065
:104AA000CDB7DEB78A836B834C8319828A818430C9
:104AB00008F0D1C08B81883008F0CDC08C81823065
:104AC00008F0C9C08A81282F30E03E832D836D8194
:104AD0007E816130710509F441C08D819E818230F3
:104AE000910534F42D813E812115310571F0B0C05E
:104AF0006D817E816230710509F459C08D819E817E
:104B00008330910509F47CC0A3C0ABE3B0E0EBE3D4
:104B1000F0E08081482F8B81282F30E081E090E009
:104B200002C0880F991F2A95E2F7809584238C9301
:104B3000ABE3B0E0EBE3F0E08081482F8C81282FDD
:104B400030E08B81882F90E0B90102C0660F771F9B
:104B50008A95E2F7CB01842B8C937AC0A8E3B0E06E
:104B6000E8E3F0E08081482F8B81282F30E081E05E
:104B700090E002C0880F991F2A95E2F78095842360
:104B80008C93A8E3B0E0E8E3F0E08081482F8C81CB
:104B9000282F30E08B81882F90E0B90102C0660F8A
:104BA000771F8A95E2F7CB01842B8C9351C0A5E344
:104BB000B0E0E5E3F0E08081482F8B81282F30E0E2
:104BC00081E090E002C0880F991F2A95E2F7809556
:104BD00084238C93A5E3B0E0E5E3F0E08081482FE7
:104BE0008C81282F30E08B81882F90E0B90102C0A2
:104BF000660F771F8A95E2F7CB01842B8C9328C030
:104C0000A2E3B0E0E2E3F0E08081482F8B81282F1F
:104C100030E081E090E002C0880F991F2A95E2F70A
:104C2000809584238C93A2E3B0E0E2E3F0E08081FE
:104C3000482F8C81282F30E08B81882F90E0B9019C
:104C400002C0660F771F8A95E2F7CB01842B8C9305
:104C500081E0898302C082E08983898126960FB62C
:104C6000F894DEBF0FBECDBFCF91DF910895DF93E3
:104C7000CF9300D000D00F92CDB7DEB78A836B837D
:104C800019828A81843008F075C08B81883008F0E1
:104C900071C08A81282F30E03D832C838C819D81D7
:104CA0008130910549F12C813D81223031052CF470
:104CB0008C819D81009761F05AC02C813D8122300A
:104CC000310571F18C819D8183309105E9F14FC0EF
:104CD000ABE3B0E0EBE3F0E08081482F8B81282F3D
:104CE00030E081E090E0022E02C0880F991F0A9404
:104CF000E2F784278C933BC0A8E3B0E0E8E3F0E060
:104D00008081482F8B81282F30E081E090E0022EB7
:104D100002C0880F991F0A94E2F784278C9327C05A
:104D2000A5E3B0E0E5E3F0E08081482F8B81282FF8
:104D300030E081E090E0022E02C0880F991F0A94B3
:104D4000E2F784278C9313C0A2E3B0E0E2E3F0E043
:104D50008081482F8B81282F30E081E090E0022E67
:104D600002C0880F991F0A94E2F784278C9381E090
:104D7000898302C082E0898389810F900F900F9010
:104D80000F900F90CF91DF910895DF93CF93CDB720
:104D9000DEB727970FB6F894DEBF0FBECDBF8A836C
:104DA0006B835D834C8319828C819D81009709F40C
:104DB0007EC08A81843008F077C08B81883008F00B
:104DC00073C08A81282F30E03F832E834E815F811C
:104DD0004130510559F18E819F818230910534F423
:104DE0002E813F812115310569F05BC04E815F81C5
:104DF0004230510579F18E819F818330910509F40C
:104E00003DC04FC0E9E3F0E08081282F30E08B8186
:104E1000882F90E0A90102C0559547958A95E2F741
:104E2000CA018170EC81FD8180833BC0E6E3F0E044
:104E30008081282F30E08B81882F90E0A90102C06B
:104E4000559547958A95E2F7CA018170EC81FD81FD
:104E5000808327C0E3E3F0E08081282F30E08B815E
:104E6000882F90E0A90102C0559547958A95E2F7F1
:104E7000CA018170EC81FD81808313C0E0E3F0E022
:104E80008081282F30E08B81882F90E0A90102C01B
:104E9000559547958A95E2F7CA018170EC81FD81AD
:104EA000808381E0898305C082E0898302C083E03A
:104EB0008983898127960FB6F894DEBF0FBECDBFD8
:104EC000CF91DF910895DF93CF930F92CDB7DEB7E7
:104ED0001982A6E2B0E0E6E2F0E08081887F8C9360
:104EE000A6E2B0E0E6E2F0E0808186608C93A7E283
:104EF000B0E0E7E2F0E08081807E8C93A7E2B0E052
:104F0000E7E2F0E0808187608C93A6E2B0E0E6E221
:104F1000F0E080818F7D8C93A6E2B0E0E6E2F0E0E5
:104F2000808188608C93A7E2B0E0E7E2F0E08081C6
:104F30008F738C93A7E2B0E0E7E2F0E080818064B9
:104F40008C93A7E2B0E0E7E2F0E0808180628C938E
:104F500089810F90CF91DF910895DF93CF93CDB7E3
:104F6000DEB7A6E2B0E0E6E2F0E0808180648C93F8
:104F700081E0CF91DF910895DF93CF9300D00F921E
:104F8000CDB7DEB79B838A831982E5E2F0E08081AA
:104F9000EA81FB81808389810F900F900F90CF91E0
:104FA000DF910895DF93CF9300D00F92CDB7DEB796
:104FB0009B838A831982E4E2F0E080818295869562
:104FC00086958370882F90E0EA81FB8191838083AE
:104FD000EA81FB8120813181E5E2F0E08081882F48
:104FE00090E0880F991F880F991F822B932BEA81DD
:104FF000FB819183808389810F900F900F90CF91D7
:10500000DF910895DF93CF9300D00F92CDB7DEB735
:105010009B838A8319828A819B81009731F08A81E0
:105020009B8190932B0780932A0789810F900F9083
:105030000F90CF91DF910895DF93CF9300D0CDB73C
:10504000DEB78A8319828A81803278F4A7E2B0E0E1
:10505000E7E2F0E08081807E8C93A7E2B0E0E7E2B7
:10506000F0E090818A81892B8C9389810F900F9039
:10507000CF91DF910895DF93CF9300D0CDB7DEB706
:105080008A8319828A81883040F5A6E2B0E0E6E2A0
:10509000F0E080818F7D8C93A0E5B0E0E0E5F0E06A
:1050A00080818F718C93A0E5B0E0E0E5F0E0808135
:1050B000282F8A81882F90E0880F991F82959295DA
:1050C000907F9827807F9827822B8C93A6E2B0E070
:1050D000E6E2F0E0808180628C9389810F900F90EE
:1050E000CF91DF910895DF93CF93CDB7DEB7A6E2DE
:1050F000B0E0E6E2F0E080818F7D8C9381E0CF919B
:10510000DF910895DF93CF93CDB7DEB7E6E2F0E00D
:10511000808182958F70882F90E0817090700097C9
:10512000A9F381E0CF91DF910895DF93CF93CDB7BD
:10513000DEB7A6E2B0E0E6E2F0E0808180618C9329
:1051400081E0CF91DF910895DF93CF930F92CDB798
:10515000DEB71982A6E2B0E0E6E2F0E08081806886
:105160008C9389810F90CF91DF910895DF93CF9336
:105170000F92CDB7DEB71982A6E2B0E0E6E2F0E02A
:1051800080818F778C9389810F90CF91DF910895E3
:10519000DF93CF930F92CDB7DEB71982A6E2B0E0CE
:1051A000E6E2F0E0808188608C9389810F90CF9156
:1051B000DF910895DF93CF930F92CDB7DEB71982B9
:1051C000A6E2B0E0E6E2F0E08081877F8C938981FF
:1051D0000F90CF91DF9108951F920F920FB60F920B
:1051E00011242F933F934F935F936F937F938F93EC
:1051F0009F93AF93BF93EF93FF93DF93CF93CDB77D
:10520000DEB780912A0790912B07009729F0E09153
:105210002A07F0912B070995CF91DF91FF91EF912C
:10522000BF91AF919F918F917F916F915F914F91BE
:105230003F912F910F900FBE0F901F901895AF9236
:10524000BF92CF92DF92EF92FF920F93DF93CF93B3
:10525000CDB7DEB70E9417070E94870C81E064E09B
:1052600041E00E945F2481E065E041E00E945F240C
:1052700081E067E041E00E945F2487E00E941C28F3
:1052800080E067E040E00E945F2480E067E040E06B
:105290000E944B2580E060E040E00E945F2480E0B7
:1052A00060E040E00E944B250E9463270E94A428F2
:1052B0000E94C8280E94700E86EE9BE20E9402287F
:1052C0000E94AD2781E060E00E94C71690933907E5
:1052D000809338078BED99E260E070E048EC50E095
:1052E00020E030E003E0EE24FF24CC24DD24AA24D7
:1052F000BB240E94EC1A85EA9AE260E070E048EC78
:1053000050E020E030E002E0EE24FF24CC24DD2455
:10531000AA24BB240E94EC1A8EE49BE260E070E0B9
:1053200040E550E020E030E002E0EE24FF24CC2411
:10533000DD24AA24BB240E94EC1A88EF9BE260E0E3
:1053400070E040E550E020E030E002E0EE24FF2491
:10535000CC24DD24AA24BB240E94EC1A84EB9BE21B
:1053600060E070E040E550E020E030E003E0EE2453
:10537000FF24CC24DD24AA24BB240E94EC1A81E063
:1053800060E00E94D3159093370780933607809191
:10539000360790913707009759F080913607909122
:1053A000370760E070E040E050E020E00E94E61641
:1053B0000E94441EFFCFDF93CF9300D00F92CDB752
:1053C000DEB79B838A8381E00E94F80881E061E078
:1053D0000E94DD0985E690E00E940D0982E061E00F
:1053E0000E94DD098BE690E00E940D0982E069E0F1
:1053F0000E94DD0981E790E00E940D0983E061E0F1
:105400000E94DD0987E790E00E940D0983E069E0D2
:105410000E94DD098DE790E00E940D09809136071A
:105420009091370760E070E043E250E020E00E9496
:10543000D117813009F084C082E066E00E94DD0966
:1054400087EA91E00E940D0987EA91E00E94452DCC
:105450008330910518F480E20E94E30882E06EE058
:105460000E94DD098BEB91E00E940D098BEB91E02E
:105470000E94452D8330910518F480E20E94E308D4
:1054800083E066E00E94DD09809132079091330746
:10549000CC01A0E0B0E0BC01CD010E943A098091AE
:1054A0003207909133078A30910520F483E890E029
:1054B0000E940D0983E06EE00E94DD0980913407AF
:1054C00090913507CC01A0E0B0E0BC01CD010E9475
:1054D0003A0980913407909135078436910520F47C
:1054E00085E890E00E940D0984E061E00E94DD09FA
:1054F00081E0898306C080E20E94E30889818F5F92
:10550000898389818131B8F384E061E00E94DD09FB
:105510008BEA91E00E940D098BEA91E028E830E0E7
:10552000B90141E050E00E94352D809136079091FD
:10553000370760E070E040E050E020E00E94E616AF
:1055400088E290E00E94B01C69CFDF93CF93CDB783
:10555000DEB72C970FB6F894DEBF0FBECDBF98878D
:105560008F83809136079091370760E070E043E2C7
:1055700050E020E00E94D117813009F08AC081E01C
:1055800066E00E94DD09198230C08981282F30E051
:10559000CE010296820F931F0E94E20C8981282F70
:1055A00030E0CE010296FC01E20FF31F80818F3FB5
:1055B00021F489818150898315C080912C079091B5
:1055C0002D07009721F08AE20E94E3080BC0898131
:1055D000282F30E0CE010296FC01E20FF31F8081FC
:1055E0000E94E30889818F5F89838981843068F212
:1055F0001E8280912C0790912D07009749F4CE01CF
:1056000002960E94172D90932D0780932C071FC0A0
:10561000CE0102960E94172D9093C0018093BF0186
:105620002091BF013091C00180912C0790912D07EE
:105630001C861B862817390721F481E090E09C879F
:105640008B878B859C859093C0018093BF0180914F
:10565000BF019091C0018130910561F480913607BE
:105660009091370760E070E040E050E020E00E9459
:10567000E61604C08091BF019091C0018091360769
:105680009091370760E070E040E050E020E00E9439
:10569000E61689E290E00E94B01C63CFDF93CF93BF
:1056A00000D00F92CDB7DEB79B838A831982809199
:1056B000BF019091C0018230910551F487EA91E0D9
:1056C00029E830E0B90144E050E00E94352D47C0A0
:1056D0008091BF019091C00181309105C9F4198278
:1056E00087EA91E02DE830E0B90143E050E00E9404
:1056F000352D81E064E041E00E944B258AE090E096
:105700000E94B01C81E064E040E00E944B2527C06D
:1057100087EA91E029E830E0B90144E050E00E94D6
:10572000352D89818F5F898389818330C0F081E045
:1057300065E041E00E944B258AE090E00E94B01CA9
:1057400081E065E040E00E944B2519828BEA91E000
:1057500020E930E0B9014DE050E00E94352D8EE1A6
:1057600090E00E94B01CA3CFDF93CF9300D00F92A4
:10577000CDB7DEB79B838A831982809138079091D9
:10578000390760E070E045E050E020E00E94D1176A
:105790008130B9F48981882351F48EE297E00E9428
:1057A000D22780E00E941C2881E0898308C080E322
:1057B00097E00E94D22787E00E941C2819820E944D
:1057C000AD278AE090E00E94B01CD7CFDF93CF9343
:1057D000CDB7DEB7809138079091390760E070E06F
:1057E00040E050E020E00E94E616CF91DF9108955E
:1057F000DF93CF9300D0CDB7DEB79A8389838091B2
:105800002E0790912F07CC01A0E0B0E0BC01CD01A4
:105810000E94A904DC01CB01BC01CD0120E030E0F5
:1058200040E050E40E941903DC01CB01BC01CD0132
:105830000E944900DC01CB0190933307809332072B
:105840008091300790913107CC01A0E0B0E028E8CA
:1058500033E140E050E0BC01CD010E94842CDC012A
:10586000CB01BC01CD010E94A904DC01CB01BC012C
:10587000CD0120E030E040E854E40E941903DC014F
:10588000CB01BC01CD010E944900DC01CB0190930A
:105890003507809334078FE090E00E94B01CAFCFB3
:1058A000DF93CF9300D0CDB7DEB79A838983809101
:1058B0003207909133078931910578F08BEB91E0B5
:1058C0002DE830E0B90143E050E00E94352D81E041
:1058D00067E041E00E944B250EC08BEB91E029E888
:1058E00030E0B90144E050E00E94352D81E067E0EE
:1058F00040E00E944B2587E190E00E94B01C0F9091
:105900000F90CF91DF910895629FD001739FF001B6
:10591000829FE00DF11D649FE00DF11D929FF00D3F
:10592000839FF00D749FF00D659FF00D9927729F76
:10593000B00DE11DF91F639FB00DE11DF91FBD0101
:10594000CF011124089597FB092E05260ED057FD8F
:1059500004D014D00AD0001C38F4509540953095EE
:1059600021953F4F4F4F5F4F0895F6F790958095E3
:10597000709561957F4F8F4F9F4F0895A1E21A2E2A
:10598000AA1BBB1BFD010DC0AA1FBB1FEE1FFF1FE3
:10599000A217B307E407F50720F0A21BB30BE40B33
:1059A000F50B661F771F881F991F1A9469F760957A
:1059B0007095809590959B01AC01BD01CF01089534
:1059C0002F923F924F925F926F927F928F929F920F
:1059D000AF92BF92CF92DF92EF92FF920F931F93FD
:1059E000CF93DF93CDB7DEB7CA1BDB0B0FB6F894AE
:1059F000DEBF0FBECDBF09942A88398848885F84EE
:105A00006E847D848C849B84AA84B984C884DF805E
:105A1000EE80FD800C811B81AA81B981CE0FD11D42
:105A20000FB6F894DEBF0FBECDBFED010895FC01A7
:105A300088279927E89421912032E9F3293010F042
:105A40002E30C8F32B3241F02D3239F4689404C063
:105A50000E945D2D820F911D219120532A30C0F3A9
:105A60001EF4909581959F4F0895FB01DC0102C0C3
:105A700001900D9241505040D8F70895DC0101C0CB
:105A80006D9341505040E0F70895FC0101900020D3
:105A9000E9F7809590958E0F9F1F0895FB01DC011B
:105AA0004150504048F001900D920020C9F701C0CC
:105AB0001D9241505040E0F708957AE0979F902D55
:0E5AC000879F802D910D11240895F894FFCF3B
:105ACE0049444C4500706173733A00446F6F723AEB
