:100000000C942A000C9447000C9447000C94470071
:100010000C9447000C9447000C9447000C94650C1A
:100020000C9447000C9447000C9447000C94470034
:100030000C9447000C9447000C9447000C94470024
:100040000C9490170C9447000C9447000C944700B4
:100050000C94470011241FBECFE5D8E0DEBFCDBF12
:1000600011E0A0E6B0E0E0EAF6E302C005900D92F0
:10007000A23DB107D9F717E0A2EDB1E001C01D9292
:10008000AA33B107E1F70E94CE190C944E1B0C94D1
:100090000000EF92FF920F931F937B018C0120E0F1
:1000A00030E040E05FE40E94190388238CF0C8012F
:1000B000B70120E030E040E05FE40E94C1010E940F
:1000C00049039B01AC01205030404040504806C0DD
:1000D000C801B7010E9449039B01AC01B901CA01E3
:1000E0001F910F91FF90EF900895A0E0B0E0EBE733
:1000F000F0E00C94CB1ADC012B01FA019C919230B8
:1001000008F439C1EB018881823008F433C194309E
:1001100069F4843009F02FC111969C91119789815F
:10012000981709F428C1ADE9B0E025C1843009F47D
:1001300021C18230A9F4923009F01DC19A01AD01AC
:1001400088E0EA010990AE01E90109929E0181501F
:10015000C1F7E201898111969C918923818308C1AD
:10016000923009F407C112962D903C901397EB0141
:100170008A819B811496AD90BD90CD90DC901797AD
:10018000EC80FD800E811F819101281B390BB90184
:1001900037FF04C066277727621B730B6032710537
:1001A0000CF061C0121613066CF537014801062EDB
:1001B00004C096948794779467940A94D2F721E0C8
:1001C00030E040E050E004C0220F331F441F551FB1
:1001D0006A95D2F721503040404050402E213F21B7
:1001E00040235123211531054105510521F021E01E
:1001F00030E040E050E079018A01E628F72808293C
:1002000019293CC0232BD1F1260E371E350146019A
:10021000062E04C096948794779467940A94D2F734
:1002200021E030E040E050E004C0220F331F441FC3
:10023000551F6A95D2F721503040404050402A2146
:100240003B214C215D21211531054105510521F04E
:1002500021E030E040E050E059016A01A628B728CB
:10026000C828D9280BC0821593052CF01C01AA249C
:10027000BB24650103C0EE24FF24870111969C91E5
:10028000D20111968C91981709F445C0992339F041
:10029000A80197012A193B094C095D0906C0A6016E
:1002A00095012E193F09400B510B57FD08C01182D3
:1002B0003382228224833583468357831DC081E0A5
:1002C00081833382228288279927DC01821B930B4A
:1002D000A40BB50B84839583A683B7830DC0220F2F
:1002E000331F441F551F24833583468357838281E0
:1002F000938101979383828324813581468157813D
:10030000DA01C9010197A109B1098F5F9F4FAF4F72
:10031000BF4328F30BC0918333822282EA0CFB1C7B
:100320000C1D1D1DE482F5820683178383E0808304
:10033000248135814681578157FF1AC0C901AA27F8
:1003400097FDA095BA2F81709070A070B0705695EF
:10035000479537952795822B932BA42BB52B848318
:100360009583A683B7838281938101969383828349
:10037000DF0101C0D201CD01CDB7DEB7E2E10C94BF
:10038000E71AA0E2B0E0E7ECF1E00C94D71A698339
:100390007A838B839C832D833E834F835887E9E048
:1003A000EE2EF12CEC0EFD1ECE010196B7010E943F
:1003B0003A058E010F5E1F4FCE010596B8010E94CF
:1003C0003A058A8991E089278A8BC701B801AE0175
:1003D000475E5F4F0E9475000E946504A096E6E0AC
:1003E0000C94F31AA0E2B0E0E8EFF1E00C94D71A15
:1003F00069837A838B839C832D833E834F835887C5
:10040000F9E0EF2EF12CEC0EFD1ECE010196B701A6
:100410000E943A058E010F5E1F4FCE010596B8016E
:100420000E943A05C701B801AE01475E5F4F0E94C6
:1004300075000E946504A096E6E00C94F31AA0E211
:10044000B0E0E5E2F2E00C94CB1A69837A838B8307
:100450009C832D833E834F835887CE010196BE0136
:10046000675F7F4F0E943A05CE010596BE016F5E21
:100470007F4F0E943A059985923088F089898230B1
:10048000C8F0943019F4823051F404C0843029F457
:10049000923081F48DE990E0C6C0923049F420E0BA
:1004A0009A858A89981321E02A87CE010996BBC0D4
:1004B000823049F420E09A858A89981321E02A8BBA
:1004C000CE014196B0C02D843E844F8458886D88FB
:1004D0007E888F88988CEE24FF248701AA24BB2471
:1004E000650140E050E060E070E0E0E0F0E0C10174
:1004F00081709070892BE9F0E60CF71C081D191D1E
:100500009A01AB012A0D3B1D4C1D5D1D80E090E062
:10051000A0E0B0E0E614F7040805190520F481E036
:1005200090E0A0E0B0E0BA01A901480F591F6A1F8E
:100530007B1FAA0CBB1CCC1CDD1C97FE08C081E0F5
:1005400090E0A0E0B0E0A82AB92ACA2ADB2A3196B6
:10055000E032F10549F0660C771C881C991C569412
:10056000479437942794C3CFFA85EA892B893C892D
:100570008B859C85280F391F2E5F3F4F17C0CA01FE
:1005800081709070892B61F016950795F794E79428
:1005900080E090E0A0E0B0E8E82AF92A0A2B1B2BC3
:1005A00076956795579547952F5F3F4F77FDE7CF36
:1005B0000CC0440F551F661F771F17FD4160EE0CDE
:1005C000FF1C001F111F21503040403090E05907A0
:1005D00090E0690790E4790760F32B8F3C8FDB0193
:1005E000CA018F779070A070B07080349105A1051A
:1005F000B10561F447FD0AC0E114F10401051105DC
:1006000029F0405C5F4F6F4F7F4F40781A8EFE1786
:1006100011F081E08A8F4D8F5E8F6F8F78A383E01A
:10062000898FCE0149960E946504A096E2E10C9460
:10063000E71AA8E1B0E0EFE1F3E00C94D71A698380
:100640007A838B839C832D833E834F83588789E0F5
:10065000E82EF12CEC0EFD1ECE010196B7010E9492
:100660003A058E010F5E1F4FCE010596B8010E941C
:100670003A058985823040F08989823028F0C701A7
:10068000B8010E94B20501C08FEF6896E6E00C94B5
:10069000F31AACE0B0E0EFE4F3E00C94DB1A69830A
:1006A0007A838B839C83CE010196BE016B5F7F4F63
:1006B0000E943A058D81823061F1823050F18430A0
:1006C00021F48E81882351F12EC02F81388537FD8A
:1006D00020C06E812F3131051CF06623F9F023C054
:1006E0008EE190E0821B930B29853A854B855C85D2
:1006F00004C056954795379527958A95D2F7662376
:10070000B1F050954095309521953F4F4F4F5F4F39
:100710000EC020E030E040E050E009C02FEF3FEF96
:100720004FEF5FE704C020E030E040E050E8B9015F
:10073000CA012C96E2E00C94F71AA8E0B0E0E3EAD4
:10074000F3E00C94D31A7B018C01611571058105CE
:10075000910519F482E0898360C083E089838EE18A
:10076000C82ED12CDC82CB82ED82FE820F831887CB
:10077000C801B7010E941604FC013197F7FF3BC086
:10078000222733272E1B3F0B57016801022E04C07E
:10079000D694C794B794A7940A94D2F740E050E057
:1007A00060E070E081E090E0A0E0B0E004C0880F7D
:1007B000991FAA1FBB1F2A95D2F70197A109B1095A
:1007C0008E219F21A023B1230097A105B10521F01F
:1007D00041E050E060E070E04A295B296C297D2906
:1007E0004D835E836F8378878EE190E08E1B9F0B35
:1007F0009C838B8312C0309781F00E2E04C0EE0CC8
:10080000FF1C001F111F0A94D2F7ED82FE820F8396
:100810001887CE1ADF0ADC82CB821A82CE010196BB
:100820000E9465042896EAE00C94EF1AEF92FF927A
:100830000F931F937B018C0180E0E81680E0F8069F
:1008400081E0080780E0180788F48FEFE816F104CC
:100850000105110531F028F088E090E0A0E0B0E05B
:1008600017C080E090E0A0E0B0E012C080E0E816A1
:1008700080E0F80680E0080781E0180728F088E1AA
:1008800090E0A0E0B0E004C080E190E0A0E0B0E043
:1008900020E230E040E050E0281B390B4A0B5B0BB4
:1008A00004C016950795F794E7948A95D2F7F70157
:1008B000EB55FF4F8081281B310941095109C901BE
:1008C0001F910F91FF90EF900895DF92EF92FF92AA
:1008D0000F931F93FC01E480F58006811781D1807E
:1008E0008081823048F480E090E0A0E1B0E0E82A26
:1008F000F92A0A2B1B2BA5C0843009F49FC0823033
:1009000021F4EE24FF24870105C0E114F104010560
:10091000110519F4E0E0F0E096C0628173819FEF69
:10092000623879070CF05BC022E83FEF261B370BDB
:100930002A3131052CF020E030E040E050E02AC0C0
:10094000B801A701022E04C0769567955795479583
:100950000A94D2F781E090E0A0E0B0E004C0880FF4
:10096000991FAA1FBB1F2A95D2F70197A109B109A8
:100970008E219F21A023B1230097A105B10521F06D
:1009800081E090E0A0E0B0E09A01AB01282B392B88
:100990004A2B5B2BDA01C9018F779070A070B07081
:1009A00080349105A105B10539F427FF09C0205C09
:1009B0003F4F4F4F5F4F04C0215C3F4F4F4F5F4F42
:1009C000E0E0F0E02030A0E03A07A0E04A07A0E431
:1009D0005A0710F0E1E0F0E079018A0127C06038A1
:1009E000710564F5FB01E158FF4FD801C7018F770E
:1009F0009070A070B07080349105A105B10539F4F4
:100A0000E7FE0DC080E490E0A0E0B0E004C08FE31A
:100A100090E0A0E0B0E0E80EF91E0A1F1B1F17FFD0
:100A200005C016950795F794E794319687E01695DB
:100A30000795F794E7948A95D1F705C0EE24FF2433
:100A40008701EFEFF0E06E2F679566276795902F8F
:100A50009F77D794DD24D7948E2F8695492F462BE8
:100A6000582F5D29B701CA011F910F91FF90EF9098
:100A7000DF900895FC01DB01408151812281622FCA
:100A80006F7770E0221F2227221F9381892F880F02
:100A9000822B282F30E0991F9927991F11969C933C
:100AA000119721153105A9F541155105610571050C
:100AB00011F482E037C082E89FEF13969C938E93E7
:100AC00012979A01AB0167E0220F331F441F551F95
:100AD0006A95D1F783E08C930DC0220F331F441F1A
:100AE000551F12968D919C911397019713969C9385
:100AF0008E931297203080E0380780E0480780E42A
:100B0000580758F314962D933D934D935C93179784
:100B100008952F3F310579F441155105610571059F
:100B200019F484E08C93089564FF03C081E08C93F2
:100B300012C01C9210C02F57304013963C932E9336
:100B4000129783E08C9387E0440F551F661F771F31
:100B50008A95D1F7706414964D935D936D937C9351
:100B6000179708951F93DC01FB019C91923008F4C4
:100B700047C08081823008F443C0943051F411960C
:100B80001C91843099F58181682F70E0611B710997
:100B90003FC0843021F0923031F48230B9F181814C
:100BA000882389F12DC011961C9111978230F1F0A4
:100BB00081811817D9F412962D913C911397828157
:100BC00093818217930794F028173907BCF0149685
:100BD0008D919D910D90BC91A02D248135814681F0
:100BE0005781281739074A075B0718F4112341F08A
:100BF0000AC082179307A407B50740F4112319F020
:100C000061E070E005C06FEF7FEF02C060E070E070
:100C1000CB011F910895EF92FF921F93182F80E050
:100C200061E040E00E946B1680E062E040E00E94DC
:100C30006B16412F441F4427441F80E066E00E944A
:100C40006B16412F429546954695417080E065E0D0
:100C50000E946B16412F42954695417080E064E0FA
:100C60000E946B16412F4295417080E063E00E9424
:100C70006B1680E062E041E00E946B1680E2E82E95
:100C80008EE4F82EC7010197F1F780E062E040E0C2
:100C90000E946B16C7010197F1F7412F46954695C3
:100CA0004695417080E066E00E946B16412F4695A4
:100CB0004695417080E065E00E946B16412F469595
:100CC000417080E064E00E946B16117080E063E088
:100CD000412F0E946B1680E062E041E00E946B169B
:100CE000C7010197F1F780E062E040E00E946B16D7
:100CF000C7010197F1F780E01F91FF90EF900895F1
:100D00000F931F93182F062F8150843030F56623E0
:100D100021F1613110F581E066E040E00E946B1640
:100D2000123069F0133018F4113089F405C0133013
:100D300049F0143061F409C0602F615008C0602F81
:100D4000615C05C0602F615F02C0602F615B862F10
:100D500080580E940B0680E001C082E01F910F9135
:100D60000895AF92BF92CF92DF92EF92FF920F93CE
:100D7000DF93CF93CDB7DEB72E970FB6F894DEBFD3
:100D80000FBECDBF6B017C01611571058105910519
:100D900049F481E066E041E00E946B1680E30E9426
:100DA0000B0612C097FF10C081E066E041E00E9490
:100DB0006B168DE20E940B06F094E094D094C094E0
:100DC000C11CD11CE11CF11CFE0131968CE0DF013D
:100DD0001D928A95E9F700E05F011EC00F5FF501E3
:100DE000E00FF11DFE87ED87C701B6012AE030E074
:100DF00040E050E00E948E1A605DAD85BE856C9328
:100E0000C701B6012AE030E040E050E00E948E1AAF
:100E1000C901DA016C017D01C114D104E104F104BE
:100E2000E9F60DC081E066E041E00E946B16F70133
:100E3000E00FF11D015080810E940B0604C07E016D
:100E40000894E11CF11C002369F780E02E960FB690
:100E5000F894DEBF0FBECDBFCF91DF910F91FF9011
:100E6000EF90DF90CF90BF90AF900895CF93DF9336
:100E7000EC01009751F483E00BC081E066E041E0B3
:100E80000E946B1689910E940B0688818823A9F71E
:100E9000DF91CF9108951F93182F81E066E040E025
:100EA0000E946B16812F0E940B0680E01F9108950F
:100EB0001F93182F81E066E041E00E946B16812F9E
:100EC0000E940B0680E01F9108950F931F938EE5FB
:100ED00091E028EC30E0F9013197F1F70197D9F76B
:100EE00081E066E041E00E94FF1580E061E041E0C2
:100EF0000E94FF1580E062E041E00E94FF1580E063
:100F000066E041E00E94FF1580E065E041E00E945C
:100F1000FF1580E064E041E00E94FF1580E063E09F
:100F200041E00E94FF1581E066E040E00E946B1600
:100F300080E066E040E00E946B1680E065E040E003
:100F40000E946B1680E064E041E00E946B1680E036
:100F500063E040E00E946B1680E062E041E00E94A6
:100F60006B1600E21EE4C8010197F1F780E062E031
:100F700040E00E946B16C8010197F1F788E20E94D9
:100F80000B0681E066E040E00E946B168FE00E9455
:100F90000B0681E066E040E00E946B1681E00E9453
:100FA0000B0681E066E040E00E946B1686E00E943E
:100FB0000B0680E01F910F9108953F924F925F9230
:100FC0006F927F928F929F92AF92BF92CF92DF9259
:100FD000EF92FF920F931F93DF93CF93CDB7DEB7BE
:100FE000A1970FB6F894DEBF0FBECDBF3C0181E0E4
:100FF0008A838B838C838D831E828F8382E0888794
:1010000083E089878A878B878C878D8784E08E87AA
:1010100085E08F8786E0888B87E0898B80E68983EF
:101020004424EE24FF244E010894811C911CEAE024
:10103000F0E0EC0FFD1FEE0DFF1D3080EEE0F0E064
:10104000EC0FFD1FEE0DFF1D5080832D652D40E040
:101050000E946B1682E1C82ED12CCC0EDD1ECE0C68
:10106000DF1C00E010E0E2E0F0E0EC0FFD1FE00F1D
:10107000F11FA080E6E0F0E0EC0FFD1FE00FF11F94
:10108000B0808A2D6B2DA4010E94111789818823BD
:1010900021F580ED97E00197F1F78A2D6B2DA401E2
:1010A0000E9411178981882331F017C08A2D6B2D7A
:1010B000A4010E94111789818823C1F3DE01529691
:1010C000E1ECF1E080E101900D928150E1F7F60151
:1010D0008081F3018083442443940F5F1F4F84E099
:1010E00090E0C80ED91E0430110509F0BCCF832D45
:1010F000652D41E00E946B160894E11CF11C94E000
:10110000E916F10409F093CF442019F48FEFF301AD
:10111000808380E0A1960FB6F894DEBF0FBECDBFEE
:10112000CF91DF911F910F91FF90EF90DF90CF90C3
:10113000BF90AF909F908F907F906F905F904F90F7
:101140003F90089583E064E041E00E94FF1583E052
:1011500065E041E00E94FF1583E066E041E00E9407
:10116000FF1583E067E041E00E94FF1583E064E043
:1011700041E00E946B1683E065E041E00E946B163F
:1011800083E066E041E00E946B1683E067E041E0A7
:101190000E946B1681E060E040E00E94FF1581E054
:1011A00061E040E00E94FF1581E062E040E00E94C3
:1011B000FF1581E063E040E00E94FF1581E060E000
:1011C00041E00E946B1681E061E041E00E946B16F5
:1011D00081E062E041E00E946B1681E063E041E063
:1011E0000E946B1680E00895F89481E00895789449
:1011F00081E00895F89481E00895EF92FF920F93B3
:101200001F93FC010580F681E02DE680F7808701C1
:10121000045F1F4FC8010E94640B83E092E0B80195
:101220000E94060B20E0E091D201F091D301D7019A
:1012300056969C918689981708F021E0822F1F917D
:101240000F91FF90EF900895FF920F931F93CF930C
:10125000DF9399E0F92E21C0F894E0910802F09113
:10126000090206811781C8010C960E94640B7894CC
:10127000E8012296CE010E94640BF80196898091C4
:10128000D401891710F49093D4019F9DC0011124BB
:1012900085529E4FBE010E94060B80910302882357
:1012A000D9F60E9418102091D5013091D601821BE9
:1012B000930B9093D8018093D70189E0F82E53C007
:1012C00001969093DA018093D901215030403093F8
:1012D000D8012093D701892B09F03EC02091FF014E
:1012E00030910002809101029091020290930002DD
:1012F0008093FF0130930202209301022DC00580EC
:10130000F681E02DC681D7812091D9013091DA0193
:101310008A819B812817390730F1F8948E010E5F7E
:101320001F4FC8010E94640B8C899D89892B21F075
:10133000CE010C960E94640B78949E898091D40112
:10134000891710F49093D4019F9DC00111248552F8
:101350009E4FB8010E94060BE091FF01F091000240
:101360008081882361F62091D7013091D801809146
:10137000D9019091DA012115310509F0A1CF90939F
:10138000D6018093D5019091D40129E006C099231C
:1013900019F41092D40132C09150929FD0011124BF
:1013A000A552BE4F8C91882391F39093D40111964E
:1013B000ED91FC9112970280F381E02D1296FC933F
:1013C000EE931197CD010396E817F90731F4828166
:1013D000938112969C938E9311971196ED91FC91A7
:1013E00012970680F781E02DF093D301E093D201AC
:1013F00020813181CF016789F9010995DF91CF9172
:101400001F910F91FF9008950F931F93CF93DF9338
:10141000EB010091D9011091DA01080F191F809199
:10142000D2019091D30102960E94640BE091D20107
:10143000F091D301138302838091D9019091DA0155
:10144000BF016E5F7F4F0817190728F480910102D2
:101450009091020204C08091FF01909100020E94CD
:101460002F0B209749F06091D2017091D301645FF6
:101470007F4FCE010E942F0BDF91CF911F910F91D3
:101480000895AF92BF92CF92DF92EF92FF920F93A7
:101490001F93CF93DF936C01B62EA42E8AE190E0C8
:1014A0000E94CB0AEC01009711F48FEF59C0809194
:1014B000D2019091D301892B21F5D093D301C09310
:1014C000D2018BED91E00E94F20A84EE91E00E943D
:1014D000F20A2DEEE22E21E0F22EC7010E94F20A5E
:1014E00006EF11E0C8010E94F20A83E092E00E9438
:1014F000F20AF0920002E092FF01109302020093C0
:101500000102EB2CBB2011F0EE24E394198E188E0F
:10151000EE8AAF8AFE01C192D1928F01CF010E9463
:10152000020BCE010C960E94020BD987C887DB8B79
:10153000CA8B85E090E08E1991099D878C879E89E2
:101540008091D401891710F49093D40189E0989F79
:10155000C001112485529E4FB8010E94060B81E004
:10156000DF91CF911F910F91FF90EF90DF90CF907F
:10157000BF90AF900895089510920D0210920C0242
:10158000089520EB34E080910C0290910D02281B0D
:10159000390BC90108950F931F93CF93DF938C01EB
:1015A0000E94121080910C0290910D029801280F58
:1015B000391F44E0203B340758F48217930740F466
:1015C000EC01C25FDD4F30930D0220930C0202C08C
:1015D000C0E0D0E00E94CC12CE01DF91CF911F91EC
:1015E0000F910895FC019C012D5F3F4F32832183B1
:1015F0008FEF9FEF94838383368325833087278300
:1016000010820895FC01118610860895CF93DF9310
:10161000AC01DB01EC0129813A81F90182819381DE
:1016200013969C938E93129789819A8115969C9319
:101630008E9314970280F381E02D75836483E90112
:101640007B836A83FA017283618319965C934E935C
:10165000189780818F5F8083DF91CF910895CF931A
:10166000DF939C01EB01488159818FEF4F3F580771
:1016700021F4F901A781B08510C0D901139604C0E7
:1016800012960D90BC91A02D1296ED91FC9113979E
:10169000808191814817590798F71296ED91FC9136
:1016A0001397FB83EA83D583C483BD83AC831396EE
:1016B000DC93CE93129739872887F90180818F5F59
:1016C0008083DF91CF910895CF93DF93DC01129651
:1016D000ED91FC91139714968D919C91159795839C
:1016E00084831496CD91DC911597FB83EA83189639
:1016F000ED91FC911997818192818A179B0711F4D2
:10170000D283C18319961C921E92189780818150B2
:101710008083DF91CF910895FC0191E1908322E2D3
:10172000229383E3829362937293129280E882936E
:10173000129282E0829383E0829384E0829385E038
:10174000829386E0829387E0829388E0829389E0A7
:10175000829380E18293929382E1829383E18293E8
:1017600084E1829385E1829386E1829387E182938B
:1017700088E1829389E1829380E2829381E282937D
:10178000229383E282934293529386E2829387E28A
:10179000829388E2829389E2829380E3829381E359
:1017A00082933197CF0108951BBC8CE78ABD8BE0F3
:1017B0008EBD89B7806189BFA091BE06B091BF067A
:1017C000CD91CDBFDD91DEBFFF91EF91DF91CF9144
:1017D000BF91AF919F918F917F916F915F914F9149
:1017E0003F912F911F910F91FF90EF90DF90CF903D
:1017F000BF90AF909F908F907F906F905F904F9031
:101800003F902F901F900F900FBE0F90089581E092
:10181000089508950F920FB6F8940F921F92112415
:101820002F923F924F925F926F927F928F929F92F0
:10183000AF92BF92CF92DF92EF92FF920F931F93DE
:101840002F933F934F935F936F937F938F939F93C8
:10185000AF93BF93CF93DF93EF93FF93A091BE0617
:10186000B091BF060DB60D920EB60D920E94771183
:101870000E942C10A091BE06B091BF06CD91CDBFA5
:10188000DD91DEBFFF91EF91DF91CF91BF91AF91DD
:101890009F918F917F916F915F914F913F912F9188
:1018A0001F910F91FF90EF90DF90CF90BF90AF907E
:1018B0009F908F907F906F905F904F903F902F9070
:1018C0001F900F900FBE0F9008950E940A0C18955C
:1018D0000F920FB6F8940F921F9211242F923F92FD
:1018E0004F925F926F927F928F929F92AF92BF9230
:1018F000CF92DF92EF92FF920F931F932F933F931C
:101900004F935F936F937F938F939F93AF93BF9307
:10191000CF93DF93EF93FF93A091BE06B091BF06E4
:101920000DB60D920EB60D920E942C10A091BE061F
:10193000B091BF06CD91CDBFDD91DEBFFF91EF919C
:10194000DF91CF91BF91AF919F918F917F916F91D7
:101950005F914F913F912F911F910F91FF90EF90C9
:10196000DF90CF90BF90AF909F908F907F906F90BF
:101970005F904F903F902F901F900F900FBE0F9051
:101980000895FC010FB6F8940F92828D0F900FBE50
:101990000895FC01828D0895FC01828D90E08823DA
:1019A00009F491E0892F0895FC01928D20E0838D48
:1019B000981709F421E0822F08950F931F938C014B
:1019C000FC01808191810E94BB0AC8010E94BB0A70
:1019D0001F910F9108950F931F93CF93DF93EC0105
:1019E000FB018A018A8D882381F148815981411543
:1019F0005105A9F08C8D2E813F81280F311D3F8329
:101A00002E838A819B812817390710F05F834E83CC
:101A10004C8D6E817F81CF0150E00E94201B8A8D0A
:101A200081508A8F8D8D8F3F69F48885882361F07E
:101A3000CE0108960E943811882331F081E0F80128
:101A4000808303C08F5F8D8F81E0DF91CF911F91E5
:101A50000F9108950F931F93CF93DF93EC010FB66F
:101A6000F8940F928C010F5E1F4F0DC08989882357
:101A700069F0C8010E943811882311F00E94B71044
:101A80008E8D81508E8F8E8D181684F38FEF8E8FF2
:101A90000F900FBE0FB6F8940F928E01085F1F4F84
:101AA0000DC08885882369F0C8010E9438118823F9
:101AB00011F00E94B7108D8D81508D8F8D8D18166D
:101AC00084F38FEF8D8F0F900FBEDF91CF911F9119
:101AD0000F9108957F928F929F92AF92BF92CF9273
:101AE000DF92EF92FF920F931F93DF93CF9300D07B
:101AF00000D00F92CDB7DEB78C01962E872E5D8376
:101B00004C83722E91E1C92ED12CC00ED11E20E043
:101B10007E010894E11CF11C84E0A82EB12CAC0ECF
:101B2000BD1E01C021E00FB6F8940F92F801828D1E
:101B3000882309F448C0E680F7804081518141152F
:101B40005105B1F0848D9701280F311D378326830D
:101B5000828193812817390710F057834683F80153
:101B6000448D66817781892D982D50E00E94201B3D
:101B70007720C1F4F801828D8150828F808191811C
:101B8000892B29F40E94BB10F80193838283F8010A
:101B900080858823A1F0C80108960E943811813001
:101BA00071F40BC0F801F782E6828189882339F04D
:101BB000C6010E943811882311F00E94680C0F9012
:101BC0000FBE81E059C08C819D81892B19F40F9043
:101BD0000FBE51C0222319F4C7010E946E100F904E
:101BE0000FBE0E9412100FB6F8940F92F801858D67
:101BF0008F3F09F4158EF801868D8F3F09F4168EFC
:101C00000F900FBEC701B5010E947910882371F5AE
:101C10000FB6F8940F92F801828D0F900FBE8823B3
:101C2000F9F4F80180819181892B51F40FB6F89471
:101C30000F92F801828193810E94EE100F900FBEE7
:101C40006C817D81C6010E94A012C8010E942A0DEC
:101C50000E94CC12882309F065CF0E94680C62CFE5
:101C6000C8010E942A0D0E94CC125CCFC8010E94BC
:101C70002A0D0E94CC1280E00F900F900F900F90D1
:101C80000F90CF91DF911F910F91FF90EF90DF9018
:101C9000CF90BF90AF909F908F907F900895CF93FB
:101CA000DF93EC01842F4C8D442359F48881998172
:101CB000892BD9F58A819B810E94C1101B821A82CF
:101CC00034C08823B1F48C819D8150E00E94201B98
:101CD0008C8D2C813D81280F311D3D832C838A8181
:101CE0009B812817390708F1888199819D838C830E
:101CF0001CC08E819F8150E00E94201B8C8D90E043
:101D000044275527481B590B8E819F81840F951FAF
:101D10009F838E83288139818217930730F48A81CB
:101D20009B81840F951F9F838E838A8D8F5F8A8FFF
:101D3000DF91CF9108950F931F93CF93DF93EC0121
:101D40008A019A8D8B8D981710F080E017C0CE0114
:101D5000422F0E944F0E8E8D8F3F69F48989882310
:101D600061F0CE0141960E943811882331F081E064
:101D7000F801808303C08F5F8E8F81E0DF91CF9168
:101D80001F910F9108957F928F929F92AF92BF9271
:101D9000CF92DF92EF92FF920F931F93DF93CF9337
:101DA00000D000D00F92CDB7DEB78C016B015D8300
:101DB0004C83722E48E0E42EF12CE80EF91E20E050
:101DC0005E010894A11CB11C34E0832E912C8C0E72
:101DD0009D1E01C021E00FB6F8940F92F801928D7C
:101DE000838D9817A8F4C801B601472D0E944F0EA5
:101DF000F8018189882341F0C80141960E94381179
:101E0000813011F40E94680C0F900FBE81E04CC02D
:101E10008C819D81892B19F40F900FBE44C0222321
:101E200019F4C5010E946E100F900FBE0E9412108F
:101E30000FB6F8940F92F801858D8F3F09F4158E37
:101E4000F801868D8F3F09F4168E0F900FBEC501E5
:101E5000B4010E947910882309F50FB6F8940F9207
:101E6000F801928D0F900FBEF801838D981781F4C1
:101E70006C817D81C7010E94A012C8010E942A0DB9
:101E80000E94CC12882309F0A5CF0E94680CA2CF33
:101E9000C8010E942A0D0E94CC129CCFC8010E944A
:101EA0002A0D0E94CC1280E00F900F900F900F909F
:101EB0000F90CF91DF911F910F91FF90EF90DF90E6
:101EC000CF90BF90AF909F908F907F900895CF93C9
:101ED000DF938FE190E00E94CB0AEC010097F9F0CC
:101EE0001B821A82198218821D821C821F821E8206
:101EF0001A8E81E08B8F1C8E8FEF8D8F8E8FCE018F
:101F000008960E94F20ACE0141960E94F20ACE0182
:101F100060E070E040E050E020E00E94C30ECE019F
:101F2000DF91CF910895AF92BF92CF92DF92EF925F
:101F3000FF920F931F93CF93DF93B82EA62E882383
:101F400009F442C08FE190E00E94CB0AEC010097B7
:101F5000D9F1EB2CFF24CA2CDD24CE9C8001CF9C30
:101F6000100DDE9C100D1124C80101960E94CB0AB1
:101F70009C0199838883009721F1080F191F1B8307
:101F80000A831A8E9D838C830894E108F108EC9CE7
:101F9000C001ED9C900DFC9C900D1124280F391F61
:101FA0003F832E83BB8EAC8E8FEF8D8F8E8FCE01B5
:101FB00008960E94F20ACE0141960E94F20A9E0102
:101FC00005C0CE010E94BB0A20E030E0C901DF91CC
:101FD000CF911F910F91FF90EF90DF90CF90BF9026
:101FE000AF9008951F93162F60E00E94930FFC019D
:101FF000009709F0128FCF011F910895FC0182858F
:1020000093858152974059F48489958927E08F30D0
:10201000920729F020E0892B19F421E001C020E08B
:10202000822F08958091C5068F5F8093C50608951D
:102030000FB6F8940F922091C3063091C4060F900A
:102040000FBEC90108952091C3063091C406C9018D
:1020500008958091C70608958091C506882351F0A0
:1020600081E08093C10608958091C00681508093DD
:10207000C00601C099E0E091C006E99FF00111247B
:10208000E453F94F8081882379F39091C00689E069
:10209000989FD0011124A453B94F1196ED91FC9152
:1020A00012970280F381E02D1296FC93EE93119724
:1020B000CD010396E817F90731F4828193811296D6
:1020C0009C938E9311971196ED91FC9112978681B6
:1020D00097819093BF068093BE060895FC0180917E
:1020E000C20680838091C3069091C4069283818347
:1020F0000895FC01DB010FB6F8940F924D915C91AD
:1021000011978FEF4F3F580761F19091C206808180
:10211000981749F02091C3063091C40681819281BD
:102120002817390700F58091C3069091C4062181D4
:102130003281821B930B84179507A8F48091C30604
:102140009091C406281B390B240F351F2D933C9307
:102150008091C20680838091C3069091C4069283C9
:10216000818380E001C081E00F900FBE089581E07F
:102170008093C10608952091BE063091BF06C90123
:1021800008950F931F93CF93DF93EC01009709F10C
:102190009E8989A19817E9F08E010E5F1F4FC80133
:1021A0000E94640B29A12E8B85E090E0821B91098F
:1021B0009D878C878091C006821710F42093C006FB
:1021C00089E0289FC00111248453994FB8010E94CF
:1021D000060BDF91CF911F910F9108950F931F93DD
:1021E000CF93DF93EC01E091BE06F091BF063E89EC
:1021F00086893817C0F5E091BE06F091BF062689A2
:1022000085E090E0821B91099D878C8789E0389F4B
:10221000C00111248453994F2A853B85281739071B
:10222000E1F48E010E5F1F4FC8010E94640BE09124
:10223000BE06F091BF0696899E8B8091C0068917D5
:1022400010F49093C00689E0989FC0011124845334
:10225000994FB8010E94060B06C0E091BE06F091AE
:10226000BF0686898E8BDF91CF911F910F910895C4
:102270000F931F93CF93DF93FC010580F681E02D30
:1022800006811781E8012C96CE010E94640B809193
:10229000C5068823A9F4E8012296CE010E94640BAA
:1022A000D80156969C918091C006891710F490939E
:1022B000C00689E0989FC00111248453994F02C041
:1022C0008FE097E0BE010E94060BE091BE06F09100
:1022D000BF0620E0D80156969C918689981708F091
:1022E00021E0822FDF91CF911F910F910895FF92EE
:1022F0000F931F93CF93DF938091C506882309F036
:102300008FC08091C3069091C40601969093C40635
:102310008093C3068091C3069091C406892B79F5FA
:1023200020910B0730910C0780910D0790910E07BB
:1023300090930C0780930B0730930E0720930D07A3
:102340008091C2068F5F8093C206E0910B07F091E7
:102350000C078081882319F48FEF9FEF0CC0E09168
:102360000B07F0910C070580F681E02D0680F781C0
:10237000E02D828193819093A6018093A501209105
:10238000C3063091C4068091A5019091A60128173B
:10239000390708F44AC089E0F82EE0910B07F09164
:1023A0000C078081882339F48FEF9FEF9093A6016B
:1023B0008093A5013AC0E0910B07F0910C070580CE
:1023C000F681E02DC681D7812A813B818091C306A9
:1023D0009091C4068217930728F43093A6012093A6
:1023E000A50123C08E010E5F1F4FC8010E94640B20
:1023F0008C899D89892B21F0CE010C960E94640B5B
:102400009E898091C006891710F49093C0069F9D05
:10241000C00111248453994FB8010E94060BBDCF0F
:102420008091C6068F5F8093C606DF91CF911F9182
:102430000F91FF900895DF92EF92FF920F931F93F9
:10244000CF93DF93EC018A859B858152974091F56C
:102450008C899D8927E08F30920761F1892B51F596
:1024600033C0DE88E091BE06F091BF06068992E097
:10247000E92EF12CEC0EFD1EC7010E94640B6E8943
:102480008091C006861710F46093C00610E0D01645
:1024900008F011E089E0689FC00111248453994F2E
:1024A000B7010E94060B07C02C968FE097E0BE0193
:1024B0000E94060B10E0812FDF91CF911F910F91A9
:1024C000FF90EF90DF9008958091C506882349F230
:1024D000EBCFCF93DF93EC01E091BE06F091BF0606
:1024E000938382838091C3069091C406C817D9074D
:1024F00068F480910D0790910E076091BE0670916F
:10250000BF066E5F7F4F0E942F0B17C080910B0795
:1025100090910C076091BE067091BF066E5F7F4F71
:102520000E942F0B8091A5019091A601C817D90791
:1025300020F4D093A601C093A501DF91CF91089517
:10254000CF93DF93EB016091BE067091BF06645F8D
:102550007F4F0E942F0B8091BE069091BF0602967E
:102560000E94640B8FEFCF3FD80759F46091BE06ED
:102570007091BF066E5F7F4F81E297E00E94060B6D
:1025800008C08091C3069091C4068C0F9D1F0E94C5
:102590006912DF91CF910895CF92DF92FF920F934E
:1025A0001F93DF93CF930F92CDB7DEB70FB6F8949A
:1025B0000F928091C50681508093C5068091C50613
:1025C000882309F058C08091C706882309F453C0B6
:1025D000198229E0F22E2DC0E0911407F091150721
:1025E000C680D780C6010C960E94640B86010E5FE0
:1025F0001F4FC8010E94640BD60156969C91809192
:10260000C006891710F49093C0069F9DC001112445
:102610008453994FB8010E94060BE091BE06F091D9
:10262000BF06D60156969C918689981710F0B1E0A6
:10263000B98380910F07882379F68091C606882395
:1026400041F40CC00E9477118091C606815080939E
:10265000C6068091C6068823A9F707C0E981E13044
:1026600021F08091C106813031F41092C1060E94A0
:10267000680C81E001C080E00F900FBE0F90CF91F9
:10268000DF911F910F91FF90DF90CF9008950F93EE
:102690001F93CF93DF93EC01009709F43CC0809126
:1026A000BE069091BF06C817D907A9F10FB6F894D6
:1026B0000F928A859B8581529740F1F48C899D8980
:1026C00027E08F309207C1F0892BB1F418C09093A6
:1026D000C00689E0989FC00111248453994FB80126
:1026E0000E94060BE091BE06F091BF069E89868986
:1026F000981710F00E94680C0F900FBE0CC08E014E
:102700000E5F1F4FC8010E94640B9E898091C00616
:102710008917E8F2DECFDF91CF911F910F910895D5
:10272000EF92FF920F931F93CF93DF938C010FB61D
:10273000F8940F928091BE069091BF060817190772
:1027400019F400E010E003C00115110529F4C0914F
:10275000BE06D091BF0601C0E80132E0E32EF12CA5
:10276000EC0EFD1EC7010E94640B8C899D89892B8C
:1027700021F0CE010C960E94640B81E297E0B70134
:102780000E94060B0F900FBE012BA1F48091C8068A
:10279000882319F00E94680C0DC090912107809148
:1027A000C706981729F41092BF061092BE0602C001
:1027B0000E942C10DF91CF911F910F91FF90EF900D
:1027C00008950F931F93CF93DF93EC010097C9F007
:1027D0008091C5068F5F8093C5060091C306109156
:1027E000C4068091BE069091BF0602960E94640BBB
:1027F000CE01800F911F0E9469120E94CC12882383
:1028000011F40E94680CDF91CF911F910F910895F0
:10281000CF93DF93FC01EB018091C5068F5F80931E
:10282000C50620813181C20FD31F8091C3069091CC
:10283000C4068217930728F4C217D30728F020E0B4
:102840000CC0C217D30740F08091C3069091C40614
:1028500020E08C179D0708F421E0D183C083222358
:1028600051F08091BE069091BF0602960E94640BC3
:10287000CE010E9469120E94CC12882311F40E949A
:10288000680CDF91CF910895EF92FF920F931F9301
:10289000CF93DF938C010FB6F8940F928091BE0610
:1028A0009091BF060817190719F400E010E003C063
:1028B0000115110529F4C091BE06D091BF0601C0D3
:1028C000E80142E0E42EF12CEC0EFD1EC7010E944F
:1028D000640B8C899D89892B21F0CE010C960E9476
:1028E000640B88E197E0B7010E94060B8091C9064E
:1028F0008F5F8093C9068091CA068F5F8093CA0656
:102900000F900FBE8091C806882321F0012B11F48F
:102910000E94680CDF91CF911F910F91FF90EF9073
:102920000895F8941092C8060E94090C08950F9318
:102930001F938091C9068823E1F38091C5068F5FBC
:102940008093C506109118070E94CC12112389F3B9
:102950000FB6F8940F92E0911D07F0911E070681C3
:102960001781C80102960E94640B8091C7068150AE
:102970008093C7068091C90681508093C9060F9045
:102980000FBEF8018789908D0E94BB0AC8010E9482
:10299000BB0ACFCF2F923F924F925F927F928F923E
:1029A0009F92AF92BF92CF92DF92EF92FF920F93DE
:1029B0001F93CF93DF931C014B015A012901702E05
:1029C000E60182E290E00E94CB0A6C01009771F070
:1029D000209721F4C5010E94CB0AEC01F601D08FAB
:1029E000C78B209729F4C6010E94BB0A8FEFC4C091
:1029F000CE0165EA70E0A5010E94291B0894A10898
:102A0000B108F601C789D08DCA0DDB1DC6014996F4
:102A1000B40148E050E00E94371BF60110A2072DD8
:102A2000F4E0F71508F404E0F601068B01A362E078
:102A3000A62EB12CAC0CBD1CC5010E94020BC60118
:102A40000C960E94020BF601D186C08685E090E0CC
:102A5000801B910995878487D38AC28ACE01B101F0
:102A6000A2010E948C0BF60191838083E114F10492
:102A700019F0F701D182C0820FB6F8940F928091BD
:102A8000C7068F5F8093C7068091BE069091BF06F0
:102A9000892B99F5D092BF06C092BE068091C706D9
:102AA0008130D1F5CCECD6E0CE010E94F20A299615
:102AB000F6E0C93FDF07C1F759EFE52E56E0F52EE6
:102AC000C7010E94F20A02E017E0C8010E94F20A60
:102AD0008FE097E00E94F20A88E197E00E94F20AF4
:102AE00081E297E00E94F20AF0920C07E0920B0755
:102AF00010930E0700930D070FC08091C80688231E
:102B000059F4E091BE06F091BF068689781620F050
:102B1000D092BF06C092BE06F60196898091CB0680
:102B2000891710F49093CB068091CA068F5F80932B
:102B3000CA06F60196898091C006891710F4909311
:102B4000C006F601868929E0829FC00111248453C2
:102B5000994FB5010E94060B0F900FBE8091C806D9
:102B6000882349F0E091BE06F091BF06868987155B
:102B700010F40E94680C81E0DF91CF911F910F91BA
:102B8000FF90EF90DF90CF90BF90AF909F908F908D
:102B90007F905F904F903F902F900895AF92BF929B
:102BA000CF92DF92EF92FF920F9387E994E160E674
:102BB00070E045E550E020E030E000E0EE24FF2446
:102BC000CC24DD24AA24BB240E94CA14813049F4F9
:102BD000F8948093C8061092C4061092C3060E940F
:102BE000D40B0F91FF90EF90DF90CF90BF90AF90FC
:102BF000089585E78ABB89ED8BBB80E0089584301A
:102C000008F067C0683008F064C0423008F061C066
:102C10008130F9F0813030F0823081F1833009F079
:102C200056C041C02AB381E090E0062E02C0880F52
:102C3000991F0A94E2F7809582238ABB2AB3842FD6
:102C400090E002C0880F991F6A95E2F7282B2ABBF3
:102C50003EC087B321E030E0062E02C0220F331FB2
:102C60000A94E2F720952823842F90E002C0880F71
:102C7000991F6A95E2F7282B27BB29C084B321E06E
:102C800030E0062E02C0220F331F0A94E2F720958F
:102C90002823842F90E002C0880F991F6A95E2F7DD
:102CA000282B24BB14C081B321E030E0062E02C0E3
:102CB000220F331F0A94E2F720952823842F90E0F7
:102CC00002C0880F991F6A95E2F7282B21BB81E08B
:102CD000089582E00895843008F065C0683008F0F7
:102CE00062C0423008F05FC08130E9F0813030F0DE
:102CF000823071F1833009F054C03FC08BB321E0C2
:102D000030E0062E02C0220F331F0A94E2F720950E
:102D10002823842F90E002C0880F991F6A95E2F75C
:102D2000282B2BBB3EC088B321E030E0062E02C02A
:102D3000220F331F0A94E2F720952823842F90E076
:102D400002C0880F991F6A95E2F7282B28BB29C07B
:102D500085B321E030E0062E02C0220F331F0A9413
:102D6000E2F720952823842F90E002C0880F991F56
:102D70006A95E2F7282B25BB14C082B321E030E02E
:102D8000062E02C0220F331F0A94E2F72095282353
:102D9000842F90E002C0880F991F6A95E2F7282BD4
:102DA00022BB81E0089582E008958430C0F5683048
:102DB000B0F5813091F0813028F08230C9F0833055
:102DC00061F521C02BB381E090E002C0880F991F0C
:102DD0006A95E2F728272BBB20C028B381E090E05A
:102DE00002C0880F991F6A95E2F7282728BB15C0F3
:102DF00025B381E090E002C0880F991F6A95E2F741
:102E0000282725BB0AC022B381E090E002C0880FCA
:102E1000991F6A95E2F7282722BB81E0089582E096
:102E20000895FA014115510511F483E008958430A5
:102E3000E0F46830D0F4813049F0813028F08230FD
:102E400039F0833081F406C089B305C086B303C06E
:102E500083B301C080B390E002C0959587956A95D1
:102E6000E2F78170808381E0089582E0089586B161
:102E7000887D8E6086B987E687B980E00895369AA6
:102E800081E00895FC0185B1808380E00895FC0114
:102E900024B185B190E0880F991F880F991F229562
:102EA00026952695237030E0822B932B9183808387
:102EB00080E00895009721F090932B0780932A07D4
:102EC00080E00895982F803220F487B1807E892B8E
:102ED00087B980E00895282F883050F496B180B7E4
:102EE0008F712295220F207E822B80BF906296B92F
:102EF00080E00895359881E00895349BFECF81E00D
:102F00000895349A81E00895379A80E008953798BB
:102F100080E00895339A80E00895339880E0089522
:102F20001F920F920FB60F9211242F933F934F933E
:102F30005F936F937F938F939F93AF93BF93EF9321
:102F4000FF93E0912A07F0912B07309709F009953C
:102F5000FF91EF91BF91AF919F918F917F916F9171
:102F60005F914F913F912F910F900FBE0F901F9047
:102F700018958091320790913307499750F08BEB69
:102F800091E065E670E00E94301B81E067E041E07F
:102F900009C08BEB91E068E670E00E94301B81E095
:102FA00067E040E00E946B1687E190E00E94E11329
:102FB000089560912E0770912F0780E090E00E94A5
:102FC0009D0320E030E040E05FE30E941F020E948A
:102FD0004900709333076093320760913007709116
:102FE000310780E090E028E833E140E050E00E94C3
:102FF0006F1A0E949D0320E030E040E85AE30E94EF
:103000001F020E94490070933507609334078FE0D8
:1030100090E00E94E113CDCF1F9310E08091BF019B
:103020009091C0018230910539F487EA91E068E619
:1030300070E00E94301B35C00197A9F487EA91E047
:1030400065E670E00E94301B81E064E041E00E9490
:103050006B168AE090E00E94E11381E064E040E0BA
:103060000E946B161DC087EA91E068E670E00E943E
:10307000301B1F5F1330A8F081E065E041E00E9443
:103080006B168AE090E00E94E11381E065E040E089
:103090000E946B168BEA91E06CE670E00E94301B98
:1030A00010E08EE190E00E94E113B8CF80913807E4
:1030B0009091390760E070E040E050E020E00E942D
:1030C000C30E08951F9310E080913807909139073F
:1030D00060E070E045E050E020E00E946A0D813041
:1030E000A9F4112349F48EE297E00E94471780E08B
:1030F0000E94621711E008C080E397E00E94471722
:1031000087E00E94621710E00E943F178AE090E07B
:103110000E94E113D9CFAF92BF92CF92DF92FF927C
:103120000F931F93DF93CF9300D000D00F92CDB7B2
:10313000DEB76E010894C11CD11C81E0A82EB12C11
:10314000809136079091370760E070E043E250E0ED
:1031500020E00E946A0D813009F059C066E00E94AB
:103160008006FF2486010F0D111DC8010E94DD0796
:10317000F80100810F3F11F4FA940BC080912C07E5
:1031800090912D07892B11F08AE201C0802F0E94B7
:103190005807F394F3E0FF1528F71D8200912C07E0
:1031A00010912D070115110541F4C6010E94021B63
:1031B00090932D0780932C070EC0C6010E94021B1E
:1031C0001092C0011092BF018017910721F4B092B4
:1031D000C001A092BF018091BF019091C0010197F1
:1031E00059F4809136079091370760E070E040E035
:1031F00050E020E00E94C30E80913607909137077F
:1032000060E070E040E050E020E00E94C30E89E200
:1032100090E00E94E11394CFEF92FF921F93CF931F
:10322000DF9381E00E944B0781E061E00E9480060D
:1032300089E790E00E94360782E061E00E94800604
:103240008FE790E00E94360782E069E00E948006E6
:1032500085E890E00E94360783E061E00E948006E6
:103260008BE890E00E94360783E069E00E948006C8
:1032700081E990E00E94360797EAE92E91E0F92E65
:10328000CBEBD1E0809136079091370760E070E09A
:1032900043E250E020E00E946A0D813009F079C0DD
:1032A00082E066E00E94800687EA91E00E9436078D
:1032B000F70101900020E9F73197E75AF140339781
:1032C00018F480E20E94580782E06EE00E948006B7
:1032D0008BEB91E00E943607FE0101900020E9F798
:1032E0003197EB5BF140339718F480E20E94580766
:1032F00083E066E00E948006609132077091330798
:1033000080E090E00E94B1068091320790913307EF
:103310000A9720F487E990E00E94360783E06EE088
:103320000E948006609134077091350780E090E03C
:103330000E94B1068091340790913507843691053B
:1033400020F489E990E00E94360784E061E00E9461
:10335000800611E080E20E9458071F5F1131D1F70B
:1033600084E061E00E9480068BEA91E00E943607CB
:103370008BEA91E06CE970E00E94301B8091360787
:103380009091370760E070E040E050E020E00E945C
:10339000C30E87E390E00E94E11374CFAF92BF9217
:1033A000CF92DF92EF92FF920F930E9465070E94E7
:1033B000A20881E064E041E00E94FF1581E065E041
:1033C00041E00E94FF1581E067E041E00E94FF15A7
:1033D00087E00E94621780E067E040E00E94FF15EE
:1033E00080E067E040E00E946B1680E060E040E033
:1033F0000E94FF1580E060E040E00E946B160E9492
:1034000037170E9484170E948A170E94F70886E5E2
:1034100098E10E945A170E943F1781E060E00E94E5
:10342000F20F90933907809338078CE099E160E0C0
:1034300070E048EC50E020E030E003E0EE24FF24B0
:10344000CC24DD24AA24BB240E94CA148BE898E172
:1034500060E070E048EC50E020E030E002E00E94E4
:10346000CA148CE098E160E070E040E550E020E0B4
:1034700030E00E94CA1489ED97E160E070E040E519
:1034800050E020E030E00E94CA1482E698E160E05B
:1034900070E040E550E020E030E003E00E94CA1414
:1034A00089EB97E160E070E040E550E020E030E03B
:1034B00002E00E94CA1481E060E00E94930F9093A2
:1034C000370780933607009739F060E070E040E0FE
:1034D00050E020E00E94C30E0E94CE15FFCF629FF5
:1034E000D001739FF001829FE00DF11D649FE00DFC
:1034F000F11D929FF00D839FF00D749FF00D659F5D
:10350000F00D9927729FB00DE11DF91F639FB00D5B
:10351000E11DF91FBD01CF011124089597FB092E6C
:1035200005260ED057FD04D014D00AD0001C38F464
:1035300050954095309521953F4F4F4F5F4F0895DF
:10354000F6F790958095709561957F4F8F4F9F4FBF
:103550000895A1E21A2EAA1BBB1BFD010DC0AA1FD4
:10356000BB1FEE1FFF1FA217B307E407F50720F0EC
:10357000A21BB30BE40BF50B661F771F881F991F67
:103580001A9469F760957095809590959B01AC01B0
:10359000BD01CF0108952F923F924F925F926F929B
:1035A0007F928F929F92AF92BF92CF92DF92EF92D3
:1035B000FF920F931F93CF93DF93CDB7DEB7CA1B54
:1035C000DB0B0FB6F894DEBF0FBECDBF09942A887F
:1035D000398848885F846E847D848C849B84AA8427
:1035E000B984C884DF80EE80FD800C811B81AA81B4
:1035F000B981CE0FD11D0FB6F894DEBF0FBECDBF7F
:10360000ED010895FC0188279927E8942191203243
:10361000E9F3293010F02E30C8F32B3241F02D326F
:1036200039F4689404C00E94461B820F911D2191B9
:1036300020532A30C0F31EF4909581959F4F089532
:10364000FB01DC0102C001900D9241505040D8F7BF
:103650000895DC0101C06D9341505040E0F708959A
:10366000FB01DC0101900D920020E1F70895FB01C0
:10367000DC014150504048F001900D920020C9F704
:1036800001C01D9241505040E0F708957AE0979FA5
:10369000902D879F802D910D11240895F894FFCFD0
:1036A00049444C45006F6E006F666600706173732D
:1036B0002077726F6E672A3300706173733A00442B
:1036C0006F6F723A007C66616E3A0054656D703AB5
:1036D000007C4761733A00200020200000000000B9
:1036E00000000000000001020203030303040404BD
:1036F000040404040405050505050505050505057F
:10370000050505050506060606060606060606065E
:103710000606060606060606060606060606060649
:10372000060606060607070707070707070707072E
:103730000707070707070707070707070707070719
:103740000707070707070707070707070707070709
:1037500007070707070707070707070707070707F9
:1037600007070707070808080808080808080808DE
:1037700008080808080808080808080808080808C9
:1037800008080808080808080808080808080808B9
:1037900008080808080808080808080808080808A9
:1037A0000808080808080808080808080808080899
:1037B0000808080808080808080808080808080889
:1037C0000808080808080808080808080808080879
:1037D0000808080808080808080808080808080869
:1037E0000808080808FFFF6F666600000000000078
:1037F00000000000000000000000006F666600028C
:10380000003738392F3435362A3132332D63303D85
:023810002B008B
:00000001FF
